{
	"contracts/Taxi.sol": {
		"Taxi": {
			"abi": [
				{
					"inputs": [],
					"stateMutability": "nonpayable",
					"type": "constructor"
				},
				{
					"anonymous": false,
					"inputs": [
						{
							"indexed": false,
							"internalType": "uint256",
							"name": "id",
							"type": "uint256"
						},
						{
							"indexed": false,
							"internalType": "string",
							"name": "fromLocation",
							"type": "string"
						},
						{
							"indexed": false,
							"internalType": "string",
							"name": "toLocation",
							"type": "string"
						},
						{
							"indexed": false,
							"internalType": "address",
							"name": "rider",
							"type": "address"
						}
					],
					"name": "reqCreated",
					"type": "event"
				},
				{
					"anonymous": false,
					"inputs": [
						{
							"indexed": false,
							"internalType": "uint256",
							"name": "id",
							"type": "uint256"
						},
						{
							"components": [
								{
									"internalType": "uint256",
									"name": "id",
									"type": "uint256"
								},
								{
									"internalType": "string",
									"name": "fromLocation",
									"type": "string"
								},
								{
									"internalType": "string",
									"name": "toLocation",
									"type": "string"
								},
								{
									"internalType": "address",
									"name": "rider",
									"type": "address"
								}
							],
							"indexed": false,
							"internalType": "struct Taxi.Request",
							"name": "req",
							"type": "tuple"
						},
						{
							"indexed": false,
							"internalType": "uint256",
							"name": "price",
							"type": "uint256"
						},
						{
							"indexed": false,
							"internalType": "address",
							"name": "driver",
							"type": "address"
						}
					],
					"name": "rideCreated",
					"type": "event"
				},
				{
					"anonymous": false,
					"inputs": [
						{
							"indexed": false,
							"internalType": "uint256",
							"name": "id",
							"type": "uint256"
						},
						{
							"indexed": false,
							"internalType": "uint256",
							"name": "price",
							"type": "uint256"
						}
					],
					"name": "rideStarted",
					"type": "event"
				},
				{
					"inputs": [
						{
							"internalType": "uint256",
							"name": "_id",
							"type": "uint256"
						},
						{
							"internalType": "uint256",
							"name": "_price",
							"type": "uint256"
						}
					],
					"name": "createRide",
					"outputs": [],
					"stateMutability": "nonpayable",
					"type": "function"
				},
				{
					"inputs": [
						{
							"internalType": "string",
							"name": "_fromLocation",
							"type": "string"
						},
						{
							"internalType": "string",
							"name": "_toLocation",
							"type": "string"
						}
					],
					"name": "requestRide",
					"outputs": [],
					"stateMutability": "nonpayable",
					"type": "function"
				},
				{
					"inputs": [
						{
							"internalType": "uint256",
							"name": "",
							"type": "uint256"
						}
					],
					"name": "requests",
					"outputs": [
						{
							"internalType": "uint256",
							"name": "id",
							"type": "uint256"
						},
						{
							"internalType": "string",
							"name": "fromLocation",
							"type": "string"
						},
						{
							"internalType": "string",
							"name": "toLocation",
							"type": "string"
						},
						{
							"internalType": "address",
							"name": "rider",
							"type": "address"
						}
					],
					"stateMutability": "view",
					"type": "function"
				},
				{
					"inputs": [
						{
							"internalType": "uint256",
							"name": "",
							"type": "uint256"
						}
					],
					"name": "rides",
					"outputs": [
						{
							"internalType": "uint256",
							"name": "id",
							"type": "uint256"
						},
						{
							"components": [
								{
									"internalType": "uint256",
									"name": "id",
									"type": "uint256"
								},
								{
									"internalType": "string",
									"name": "fromLocation",
									"type": "string"
								},
								{
									"internalType": "string",
									"name": "toLocation",
									"type": "string"
								},
								{
									"internalType": "address",
									"name": "rider",
									"type": "address"
								}
							],
							"internalType": "struct Taxi.Request",
							"name": "req",
							"type": "tuple"
						},
						{
							"internalType": "uint256",
							"name": "price",
							"type": "uint256"
						},
						{
							"internalType": "address payable",
							"name": "driver",
							"type": "address"
						}
					],
					"stateMutability": "view",
					"type": "function"
				},
				{
					"inputs": [
						{
							"internalType": "uint256",
							"name": "_id",
							"type": "uint256"
						}
					],
					"name": "startRide",
					"outputs": [],
					"stateMutability": "payable",
					"type": "function"
				}
			],
			"devdoc": {
				"kind": "dev",
				"methods": {},
				"version": 1
			},
			"evm": {
				"assembly": "    /* \"contracts/Taxi.sol\":62:2940  contract Taxi {\r... */\n  mstore(0x40, 0x80)\n    /* \"contracts/Taxi.sol\":492:493  0 */\n  0x00\n    /* \"contracts/Taxi.sol\":467:493  uint private rideCount = 0 */\n  0x01\n  sstore\n    /* \"contracts/Taxi.sol\":528:529  0 */\n  0x00\n    /* \"contracts/Taxi.sol\":500:529  uint private requestCount = 0 */\n  0x02\n  sstore\n    /* \"contracts/Taxi.sol\":89:152  constructor()  {\r... */\n  callvalue\n  dup1\n  iszero\n  tag_1\n  jumpi\n  0x00\n  dup1\n  revert\ntag_1:\n  pop\n    /* \"contracts/Taxi.sol\":115:136  name = \"CCT Taxi App\" */\n  mload(0x40)\n  dup1\n  0x40\n  add\n  0x40\n  mstore\n  dup1\n  0x0c\n  dup2\n  mstore\n  0x20\n  add\n  0x4343542054617869204170700000000000000000000000000000000000000000\n  dup2\n  mstore\n  pop\n    /* \"contracts/Taxi.sol\":115:119  name */\n  0x00\n    /* \"contracts/Taxi.sol\":115:136  name = \"CCT Taxi App\" */\n  swap1\n  dup1\n  mload\n  swap1\n  0x20\n  add\n  swap1\n  tag_4\n  swap3\n  swap2\n  swap1\n  tag_5\n  jump\t// in\ntag_4:\n  pop\n    /* \"contracts/Taxi.sol\":62:2940  contract Taxi {\r... */\n  jump(tag_6)\ntag_5:\n  dup3\n  dup1\n  sload\n  tag_7\n  swap1\n  tag_8\n  jump\t// in\ntag_7:\n  swap1\n  0x00\n  mstore\n  keccak256(0x00, 0x20)\n  swap1\n  0x1f\n  add\n  0x20\n  swap1\n  div\n  dup2\n  add\n  swap3\n  dup3\n  tag_10\n  jumpi\n  0x00\n  dup6\n  sstore\n  jump(tag_9)\ntag_10:\n  dup3\n  0x1f\n  lt\n  tag_11\n  jumpi\n  dup1\n  mload\n  not(0xff)\n  and\n  dup4\n  dup1\n  add\n  or\n  dup6\n  sstore\n  jump(tag_9)\ntag_11:\n  dup3\n  dup1\n  add\n  0x01\n  add\n  dup6\n  sstore\n  dup3\n  iszero\n  tag_9\n  jumpi\n  swap2\n  dup3\n  add\ntag_12:\n  dup3\n  dup2\n  gt\n  iszero\n  tag_13\n  jumpi\n  dup3\n  mload\n  dup3\n  sstore\n  swap2\n  0x20\n  add\n  swap2\n  swap1\n  0x01\n  add\n  swap1\n  jump(tag_12)\ntag_13:\ntag_9:\n  pop\n  swap1\n  pop\n  tag_14\n  swap2\n  swap1\n  tag_15\n  jump\t// in\ntag_14:\n  pop\n  swap1\n  jump\t// out\ntag_15:\ntag_16:\n  dup1\n  dup3\n  gt\n  iszero\n  tag_17\n  jumpi\n  0x00\n  dup2\n  0x00\n  swap1\n  sstore\n  pop\n  0x01\n  add\n  jump(tag_16)\ntag_17:\n  pop\n  swap1\n  jump\t// out\n    /* \"#utility.yul\":7:327   */\ntag_8:\n    /* \"#utility.yul\":51:57   */\n  0x00\n    /* \"#utility.yul\":88:89   */\n  0x02\n    /* \"#utility.yul\":82:86   */\n  dup3\n    /* \"#utility.yul\":78:90   */\n  div\n    /* \"#utility.yul\":68:90   */\n  swap1\n  pop\n    /* \"#utility.yul\":135:136   */\n  0x01\n    /* \"#utility.yul\":129:133   */\n  dup3\n    /* \"#utility.yul\":125:137   */\n  and\n    /* \"#utility.yul\":156:174   */\n  dup1\n    /* \"#utility.yul\":146:227   */\n  tag_20\n  jumpi\n    /* \"#utility.yul\":212:216   */\n  0x7f\n    /* \"#utility.yul\":204:210   */\n  dup3\n    /* \"#utility.yul\":200:217   */\n  and\n    /* \"#utility.yul\":190:217   */\n  swap2\n  pop\n    /* \"#utility.yul\":146:227   */\ntag_20:\n    /* \"#utility.yul\":274:276   */\n  0x20\n    /* \"#utility.yul\":266:272   */\n  dup3\n    /* \"#utility.yul\":263:277   */\n  lt\n    /* \"#utility.yul\":243:261   */\n  dup2\n    /* \"#utility.yul\":240:278   */\n  eq\n    /* \"#utility.yul\":237:321   */\n  iszero\n  tag_21\n  jumpi\n    /* \"#utility.yul\":293:311   */\n  tag_22\n  tag_23\n  jump\t// in\ntag_22:\n    /* \"#utility.yul\":237:321   */\ntag_21:\n    /* \"#utility.yul\":58:327   */\n  pop\n    /* \"#utility.yul\":7:327   */\n  swap2\n  swap1\n  pop\n  jump\t// out\n    /* \"#utility.yul\":333:513   */\ntag_23:\n    /* \"#utility.yul\":381:458   */\n  0x4e487b7100000000000000000000000000000000000000000000000000000000\n    /* \"#utility.yul\":378:379   */\n  0x00\n    /* \"#utility.yul\":371:459   */\n  mstore\n    /* \"#utility.yul\":478:482   */\n  0x22\n    /* \"#utility.yul\":475:476   */\n  0x04\n    /* \"#utility.yul\":468:483   */\n  mstore\n    /* \"#utility.yul\":502:506   */\n  0x24\n    /* \"#utility.yul\":499:500   */\n  0x00\n    /* \"#utility.yul\":492:507   */\n  revert\n    /* \"contracts/Taxi.sol\":62:2940  contract Taxi {\r... */\ntag_6:\n  dataSize(sub_0)\n  dup1\n  dataOffset(sub_0)\n  0x00\n  codecopy\n  0x00\n  return\nstop\n\nsub_0: assembly {\n        /* \"contracts/Taxi.sol\":62:2940  contract Taxi {\r... */\n      mstore(0x40, 0x80)\n      jumpi(tag_1, lt(calldatasize, 0x04))\n      shr(0xe0, calldataload(0x00))\n      dup1\n      0x5205f112\n      eq\n      tag_2\n      jumpi\n      dup1\n      0x81d12c58\n      eq\n      tag_3\n      jumpi\n      dup1\n      0x85a79173\n      eq\n      tag_4\n      jumpi\n      dup1\n      0xac4bfb03\n      eq\n      tag_5\n      jumpi\n      dup1\n      0xe9c14b1e\n      eq\n      tag_6\n      jumpi\n    tag_1:\n      0x00\n      dup1\n      revert\n        /* \"contracts/Taxi.sol\":583:617  mapping(uint => Ride) public rides */\n    tag_2:\n      callvalue\n      dup1\n      iszero\n      tag_7\n      jumpi\n      0x00\n      dup1\n      revert\n    tag_7:\n      pop\n      tag_8\n      0x04\n      dup1\n      calldatasize\n      sub\n      dup2\n      add\n      swap1\n      tag_9\n      swap2\n      swap1\n      tag_10\n      jump\t// in\n    tag_9:\n      tag_11\n      jump\t// in\n    tag_8:\n      mload(0x40)\n      tag_12\n      swap5\n      swap4\n      swap3\n      swap2\n      swap1\n      tag_13\n      jump\t// in\n    tag_12:\n      mload(0x40)\n      dup1\n      swap2\n      sub\n      swap1\n      return\n        /* \"contracts/Taxi.sol\":536:576  mapping(uint => Request) public requests */\n    tag_3:\n      callvalue\n      dup1\n      iszero\n      tag_14\n      jumpi\n      0x00\n      dup1\n      revert\n    tag_14:\n      pop\n      tag_15\n      0x04\n      dup1\n      calldatasize\n      sub\n      dup2\n      add\n      swap1\n      tag_16\n      swap2\n      swap1\n      tag_10\n      jump\t// in\n    tag_16:\n      tag_17\n      jump\t// in\n    tag_15:\n      mload(0x40)\n      tag_18\n      swap5\n      swap4\n      swap3\n      swap2\n      swap1\n      tag_19\n      jump\t// in\n    tag_18:\n      mload(0x40)\n      dup1\n      swap2\n      sub\n      swap1\n      return\n        /* \"contracts/Taxi.sol\":1561:2128  function createRide(uint _id , uint _price) public {\r... */\n    tag_4:\n      callvalue\n      dup1\n      iszero\n      tag_20\n      jumpi\n      0x00\n      dup1\n      revert\n    tag_20:\n      pop\n      tag_21\n      0x04\n      dup1\n      calldatasize\n      sub\n      dup2\n      add\n      swap1\n      tag_22\n      swap2\n      swap1\n      tag_23\n      jump\t// in\n    tag_22:\n      tag_24\n      jump\t// in\n    tag_21:\n      stop\n        /* \"contracts/Taxi.sol\":970:1468  function requestRide(string memory _fromLocation, string memory _toLocation) public {   \r... */\n    tag_5:\n      callvalue\n      dup1\n      iszero\n      tag_25\n      jumpi\n      0x00\n      dup1\n      revert\n    tag_25:\n      pop\n      tag_26\n      0x04\n      dup1\n      calldatasize\n      sub\n      dup2\n      add\n      swap1\n      tag_27\n      swap2\n      swap1\n      tag_28\n      jump\t// in\n    tag_27:\n      tag_29\n      jump\t// in\n    tag_26:\n      stop\n        /* \"contracts/Taxi.sol\":2347:2929  function startRide(uint _id) public payable {       \r... */\n    tag_6:\n      tag_30\n      0x04\n      dup1\n      calldatasize\n      sub\n      dup2\n      add\n      swap1\n      tag_31\n      swap2\n      swap1\n      tag_10\n      jump\t// in\n    tag_31:\n      tag_32\n      jump\t// in\n    tag_30:\n      stop\n        /* \"contracts/Taxi.sol\":583:617  mapping(uint => Ride) public rides */\n    tag_11:\n      mstore(0x20, 0x04)\n      dup1\n      0x00\n      mstore\n      keccak256(0x00, 0x40)\n      0x00\n      swap2\n      pop\n      swap1\n      pop\n      dup1\n      0x00\n      add\n      sload\n      swap1\n      dup1\n      0x01\n      add\n      mload(0x40)\n      dup1\n      0x80\n      add\n      0x40\n      mstore\n      swap1\n      dup2\n      0x00\n      dup3\n      add\n      sload\n      dup2\n      mstore\n      0x20\n      add\n      0x01\n      dup3\n      add\n      dup1\n      sload\n      tag_33\n      swap1\n      tag_34\n      jump\t// in\n    tag_33:\n      dup1\n      0x1f\n      add\n      0x20\n      dup1\n      swap2\n      div\n      mul\n      0x20\n      add\n      mload(0x40)\n      swap1\n      dup2\n      add\n      0x40\n      mstore\n      dup1\n      swap3\n      swap2\n      swap1\n      dup2\n      dup2\n      mstore\n      0x20\n      add\n      dup3\n      dup1\n      sload\n      tag_35\n      swap1\n      tag_34\n      jump\t// in\n    tag_35:\n      dup1\n      iszero\n      tag_36\n      jumpi\n      dup1\n      0x1f\n      lt\n      tag_37\n      jumpi\n      0x0100\n      dup1\n      dup4\n      sload\n      div\n      mul\n      dup4\n      mstore\n      swap2\n      0x20\n      add\n      swap2\n      jump(tag_36)\n    tag_37:\n      dup3\n      add\n      swap2\n      swap1\n      0x00\n      mstore\n      keccak256(0x00, 0x20)\n      swap1\n    tag_38:\n      dup2\n      sload\n      dup2\n      mstore\n      swap1\n      0x01\n      add\n      swap1\n      0x20\n      add\n      dup1\n      dup4\n      gt\n      tag_38\n      jumpi\n      dup3\n      swap1\n      sub\n      0x1f\n      and\n      dup3\n      add\n      swap2\n    tag_36:\n      pop\n      pop\n      pop\n      pop\n      pop\n      dup2\n      mstore\n      0x20\n      add\n      0x02\n      dup3\n      add\n      dup1\n      sload\n      tag_39\n      swap1\n      tag_34\n      jump\t// in\n    tag_39:\n      dup1\n      0x1f\n      add\n      0x20\n      dup1\n      swap2\n      div\n      mul\n      0x20\n      add\n      mload(0x40)\n      swap1\n      dup2\n      add\n      0x40\n      mstore\n      dup1\n      swap3\n      swap2\n      swap1\n      dup2\n      dup2\n      mstore\n      0x20\n      add\n      dup3\n      dup1\n      sload\n      tag_40\n      swap1\n      tag_34\n      jump\t// in\n    tag_40:\n      dup1\n      iszero\n      tag_41\n      jumpi\n      dup1\n      0x1f\n      lt\n      tag_42\n      jumpi\n      0x0100\n      dup1\n      dup4\n      sload\n      div\n      mul\n      dup4\n      mstore\n      swap2\n      0x20\n      add\n      swap2\n      jump(tag_41)\n    tag_42:\n      dup3\n      add\n      swap2\n      swap1\n      0x00\n      mstore\n      keccak256(0x00, 0x20)\n      swap1\n    tag_43:\n      dup2\n      sload\n      dup2\n      mstore\n      swap1\n      0x01\n      add\n      swap1\n      0x20\n      add\n      dup1\n      dup4\n      gt\n      tag_43\n      jumpi\n      dup3\n      swap1\n      sub\n      0x1f\n      and\n      dup3\n      add\n      swap2\n    tag_41:\n      pop\n      pop\n      pop\n      pop\n      pop\n      dup2\n      mstore\n      0x20\n      add\n      0x03\n      dup3\n      add\n      0x00\n      swap1\n      sload\n      swap1\n      0x0100\n      exp\n      swap1\n      div\n      0xffffffffffffffffffffffffffffffffffffffff\n      and\n      0xffffffffffffffffffffffffffffffffffffffff\n      and\n      0xffffffffffffffffffffffffffffffffffffffff\n      and\n      dup2\n      mstore\n      pop\n      pop\n      swap1\n      dup1\n      0x05\n      add\n      sload\n      swap1\n      dup1\n      0x06\n      add\n      0x00\n      swap1\n      sload\n      swap1\n      0x0100\n      exp\n      swap1\n      div\n      0xffffffffffffffffffffffffffffffffffffffff\n      and\n      swap1\n      pop\n      dup5\n      jump\t// out\n        /* \"contracts/Taxi.sol\":536:576  mapping(uint => Request) public requests */\n    tag_17:\n      mstore(0x20, 0x03)\n      dup1\n      0x00\n      mstore\n      keccak256(0x00, 0x40)\n      0x00\n      swap2\n      pop\n      swap1\n      pop\n      dup1\n      0x00\n      add\n      sload\n      swap1\n      dup1\n      0x01\n      add\n      dup1\n      sload\n      tag_44\n      swap1\n      tag_34\n      jump\t// in\n    tag_44:\n      dup1\n      0x1f\n      add\n      0x20\n      dup1\n      swap2\n      div\n      mul\n      0x20\n      add\n      mload(0x40)\n      swap1\n      dup2\n      add\n      0x40\n      mstore\n      dup1\n      swap3\n      swap2\n      swap1\n      dup2\n      dup2\n      mstore\n      0x20\n      add\n      dup3\n      dup1\n      sload\n      tag_45\n      swap1\n      tag_34\n      jump\t// in\n    tag_45:\n      dup1\n      iszero\n      tag_46\n      jumpi\n      dup1\n      0x1f\n      lt\n      tag_47\n      jumpi\n      0x0100\n      dup1\n      dup4\n      sload\n      div\n      mul\n      dup4\n      mstore\n      swap2\n      0x20\n      add\n      swap2\n      jump(tag_46)\n    tag_47:\n      dup3\n      add\n      swap2\n      swap1\n      0x00\n      mstore\n      keccak256(0x00, 0x20)\n      swap1\n    tag_48:\n      dup2\n      sload\n      dup2\n      mstore\n      swap1\n      0x01\n      add\n      swap1\n      0x20\n      add\n      dup1\n      dup4\n      gt\n      tag_48\n      jumpi\n      dup3\n      swap1\n      sub\n      0x1f\n      and\n      dup3\n      add\n      swap2\n    tag_46:\n      pop\n      pop\n      pop\n      pop\n      pop\n      swap1\n      dup1\n      0x02\n      add\n      dup1\n      sload\n      tag_49\n      swap1\n      tag_34\n      jump\t// in\n    tag_49:\n      dup1\n      0x1f\n      add\n      0x20\n      dup1\n      swap2\n      div\n      mul\n      0x20\n      add\n      mload(0x40)\n      swap1\n      dup2\n      add\n      0x40\n      mstore\n      dup1\n      swap3\n      swap2\n      swap1\n      dup2\n      dup2\n      mstore\n      0x20\n      add\n      dup3\n      dup1\n      sload\n      tag_50\n      swap1\n      tag_34\n      jump\t// in\n    tag_50:\n      dup1\n      iszero\n      tag_51\n      jumpi\n      dup1\n      0x1f\n      lt\n      tag_52\n      jumpi\n      0x0100\n      dup1\n      dup4\n      sload\n      div\n      mul\n      dup4\n      mstore\n      swap2\n      0x20\n      add\n      swap2\n      jump(tag_51)\n    tag_52:\n      dup3\n      add\n      swap2\n      swap1\n      0x00\n      mstore\n      keccak256(0x00, 0x20)\n      swap1\n    tag_53:\n      dup2\n      sload\n      dup2\n      mstore\n      swap1\n      0x01\n      add\n      swap1\n      0x20\n      add\n      dup1\n      dup4\n      gt\n      tag_53\n      jumpi\n      dup3\n      swap1\n      sub\n      0x1f\n      and\n      dup3\n      add\n      swap2\n    tag_51:\n      pop\n      pop\n      pop\n      pop\n      pop\n      swap1\n      dup1\n      0x03\n      add\n      0x00\n      swap1\n      sload\n      swap1\n      0x0100\n      exp\n      swap1\n      div\n      0xffffffffffffffffffffffffffffffffffffffff\n      and\n      swap1\n      pop\n      dup5\n      jump\t// out\n        /* \"contracts/Taxi.sol\":1561:2128  function createRide(uint _id , uint _price) public {\r... */\n    tag_24:\n        /* \"contracts/Taxi.sol\":1675:1679  1e18 */\n      0x0de0b6b3a7640000\n        /* \"contracts/Taxi.sol\":1668:1674  _price */\n      dup2\n        /* \"contracts/Taxi.sol\":1668:1679  _price*1e18 */\n      tag_55\n      swap2\n      swap1\n      tag_56\n      jump\t// in\n    tag_55:\n        /* \"contracts/Taxi.sol\":1659:1679  _price = _price*1e18 */\n      swap1\n      pop\n        /* \"contracts/Taxi.sol\":1738:1761  Request memory _request */\n      0x00\n        /* \"contracts/Taxi.sol\":1764:1772  requests */\n      0x03\n        /* \"contracts/Taxi.sol\":1764:1777  requests[_id] */\n      0x00\n        /* \"contracts/Taxi.sol\":1773:1776  _id */\n      dup5\n        /* \"contracts/Taxi.sol\":1764:1777  requests[_id] */\n      dup2\n      mstore\n      0x20\n      add\n      swap1\n      dup2\n      mstore\n      0x20\n      add\n      0x00\n      keccak256\n        /* \"contracts/Taxi.sol\":1738:1777  Request memory _request = requests[_id] */\n      mload(0x40)\n      dup1\n      0x80\n      add\n      0x40\n      mstore\n      swap1\n      dup2\n      0x00\n      dup3\n      add\n      sload\n      dup2\n      mstore\n      0x20\n      add\n      0x01\n      dup3\n      add\n      dup1\n      sload\n      tag_57\n      swap1\n      tag_34\n      jump\t// in\n    tag_57:\n      dup1\n      0x1f\n      add\n      0x20\n      dup1\n      swap2\n      div\n      mul\n      0x20\n      add\n      mload(0x40)\n      swap1\n      dup2\n      add\n      0x40\n      mstore\n      dup1\n      swap3\n      swap2\n      swap1\n      dup2\n      dup2\n      mstore\n      0x20\n      add\n      dup3\n      dup1\n      sload\n      tag_58\n      swap1\n      tag_34\n      jump\t// in\n    tag_58:\n      dup1\n      iszero\n      tag_59\n      jumpi\n      dup1\n      0x1f\n      lt\n      tag_60\n      jumpi\n      0x0100\n      dup1\n      dup4\n      sload\n      div\n      mul\n      dup4\n      mstore\n      swap2\n      0x20\n      add\n      swap2\n      jump(tag_59)\n    tag_60:\n      dup3\n      add\n      swap2\n      swap1\n      0x00\n      mstore\n      keccak256(0x00, 0x20)\n      swap1\n    tag_61:\n      dup2\n      sload\n      dup2\n      mstore\n      swap1\n      0x01\n      add\n      swap1\n      0x20\n      add\n      dup1\n      dup4\n      gt\n      tag_61\n      jumpi\n      dup3\n      swap1\n      sub\n      0x1f\n      and\n      dup3\n      add\n      swap2\n    tag_59:\n      pop\n      pop\n      pop\n      pop\n      pop\n      dup2\n      mstore\n      0x20\n      add\n      0x02\n      dup3\n      add\n      dup1\n      sload\n      tag_62\n      swap1\n      tag_34\n      jump\t// in\n    tag_62:\n      dup1\n      0x1f\n      add\n      0x20\n      dup1\n      swap2\n      div\n      mul\n      0x20\n      add\n      mload(0x40)\n      swap1\n      dup2\n      add\n      0x40\n      mstore\n      dup1\n      swap3\n      swap2\n      swap1\n      dup2\n      dup2\n      mstore\n      0x20\n      add\n      dup3\n      dup1\n      sload\n      tag_63\n      swap1\n      tag_34\n      jump\t// in\n    tag_63:\n      dup1\n      iszero\n      tag_64\n      jumpi\n      dup1\n      0x1f\n      lt\n      tag_65\n      jumpi\n      0x0100\n      dup1\n      dup4\n      sload\n      div\n      mul\n      dup4\n      mstore\n      swap2\n      0x20\n      add\n      swap2\n      jump(tag_64)\n    tag_65:\n      dup3\n      add\n      swap2\n      swap1\n      0x00\n      mstore\n      keccak256(0x00, 0x20)\n      swap1\n    tag_66:\n      dup2\n      sload\n      dup2\n      mstore\n      swap1\n      0x01\n      add\n      swap1\n      0x20\n      add\n      dup1\n      dup4\n      gt\n      tag_66\n      jumpi\n      dup3\n      swap1\n      sub\n      0x1f\n      and\n      dup3\n      add\n      swap2\n    tag_64:\n      pop\n      pop\n      pop\n      pop\n      pop\n      dup2\n      mstore\n      0x20\n      add\n      0x03\n      dup3\n      add\n      0x00\n      swap1\n      sload\n      swap1\n      0x0100\n      exp\n      swap1\n      div\n      0xffffffffffffffffffffffffffffffffffffffff\n      and\n      0xffffffffffffffffffffffffffffffffffffffff\n      and\n      0xffffffffffffffffffffffffffffffffffffffff\n      and\n      dup2\n      mstore\n      pop\n      pop\n      swap1\n      pop\n        /* \"contracts/Taxi.sol\":1808:1818  msg.sender */\n      caller\n        /* \"contracts/Taxi.sol\":1792:1818  _request.rider!=msg.sender */\n      0xffffffffffffffffffffffffffffffffffffffff\n      and\n        /* \"contracts/Taxi.sol\":1792:1800  _request */\n      dup2\n        /* \"contracts/Taxi.sol\":1792:1806  _request.rider */\n      0x60\n      add\n      mload\n        /* \"contracts/Taxi.sol\":1792:1818  _request.rider!=msg.sender */\n      0xffffffffffffffffffffffffffffffffffffffff\n      and\n      eq\n      iszero\n        /* \"contracts/Taxi.sol\":1784:1859  require(_request.rider!=msg.sender , \"A Rider cannot offer himself a ride\") */\n      tag_67\n      jumpi\n      mload(0x40)\n      0x08c379a000000000000000000000000000000000000000000000000000000000\n      dup2\n      mstore\n      0x04\n      add\n      tag_68\n      swap1\n      tag_69\n      jump\t// in\n    tag_68:\n      mload(0x40)\n      dup1\n      swap2\n      sub\n      swap1\n      revert\n    tag_67:\n        /* \"contracts/Taxi.sol\":1866:1875  rideCount */\n      0x01\n      0x00\n        /* \"contracts/Taxi.sol\":1866:1878  rideCount ++ */\n      dup2\n      sload\n      dup1\n      swap3\n      swap2\n      swap1\n      tag_70\n      swap1\n      tag_71\n      jump\t// in\n    tag_70:\n      swap2\n      swap1\n      pop\n      sstore\n      pop\n        /* \"contracts/Taxi.sol\":1994:2048  Ride(rideCount, _request, _price, payable(msg.sender)) */\n      mload(0x40)\n      dup1\n      0x80\n      add\n      0x40\n      mstore\n      dup1\n        /* \"contracts/Taxi.sol\":1999:2008  rideCount */\n      sload(0x01)\n        /* \"contracts/Taxi.sol\":1994:2048  Ride(rideCount, _request, _price, payable(msg.sender)) */\n      dup2\n      mstore\n      0x20\n      add\n        /* \"contracts/Taxi.sol\":2010:2018  _request */\n      dup3\n        /* \"contracts/Taxi.sol\":1994:2048  Ride(rideCount, _request, _price, payable(msg.sender)) */\n      dup2\n      mstore\n      0x20\n      add\n        /* \"contracts/Taxi.sol\":2020:2026  _price */\n      dup4\n        /* \"contracts/Taxi.sol\":1994:2048  Ride(rideCount, _request, _price, payable(msg.sender)) */\n      dup2\n      mstore\n      0x20\n      add\n        /* \"contracts/Taxi.sol\":2036:2046  msg.sender */\n      caller\n        /* \"contracts/Taxi.sol\":1994:2048  Ride(rideCount, _request, _price, payable(msg.sender)) */\n      0xffffffffffffffffffffffffffffffffffffffff\n      and\n      dup2\n      mstore\n      pop\n        /* \"contracts/Taxi.sol\":1975:1980  rides */\n      0x04\n        /* \"contracts/Taxi.sol\":1975:1991  rides[rideCount] */\n      0x00\n        /* \"contracts/Taxi.sol\":1981:1990  rideCount */\n      sload(0x01)\n        /* \"contracts/Taxi.sol\":1975:1991  rides[rideCount] */\n      dup2\n      mstore\n      0x20\n      add\n      swap1\n      dup2\n      mstore\n      0x20\n      add\n      0x00\n      keccak256\n        /* \"contracts/Taxi.sol\":1975:2048  rides[rideCount] = Ride(rideCount, _request, _price, payable(msg.sender)) */\n      0x00\n      dup3\n      add\n      mload\n      dup2\n      0x00\n      add\n      sstore\n      0x20\n      dup3\n      add\n      mload\n      dup2\n      0x01\n      add\n      0x00\n      dup3\n      add\n      mload\n      dup2\n      0x00\n      add\n      sstore\n      0x20\n      dup3\n      add\n      mload\n      dup2\n      0x01\n      add\n      swap1\n      dup1\n      mload\n      swap1\n      0x20\n      add\n      swap1\n      tag_72\n      swap3\n      swap2\n      swap1\n      tag_73\n      jump\t// in\n    tag_72:\n      pop\n      0x40\n      dup3\n      add\n      mload\n      dup2\n      0x02\n      add\n      swap1\n      dup1\n      mload\n      swap1\n      0x20\n      add\n      swap1\n      tag_74\n      swap3\n      swap2\n      swap1\n      tag_73\n      jump\t// in\n    tag_74:\n      pop\n      0x60\n      dup3\n      add\n      mload\n      dup2\n      0x03\n      add\n      exp(0x0100, 0x00)\n      dup2\n      sload\n      dup2\n      0xffffffffffffffffffffffffffffffffffffffff\n      mul\n      not\n      and\n      swap1\n      dup4\n      0xffffffffffffffffffffffffffffffffffffffff\n      and\n      mul\n      or\n      swap1\n      sstore\n      pop\n      pop\n      pop\n      0x40\n      dup3\n      add\n      mload\n      dup2\n      0x05\n      add\n      sstore\n      0x60\n      dup3\n      add\n      mload\n      dup2\n      0x06\n      add\n      exp(0x0100, 0x00)\n      dup2\n      sload\n      dup2\n      0xffffffffffffffffffffffffffffffffffffffff\n      mul\n      not\n      and\n      swap1\n      dup4\n      0xffffffffffffffffffffffffffffffffffffffff\n      and\n      mul\n      or\n      swap1\n      sstore\n      pop\n      swap1\n      pop\n      pop\n        /* \"contracts/Taxi.sol\":2073:2124  rideCreated(rideCount,_request, _price, msg.sender) */\n      0x6f47f11e2c6f6c41b723e05652c1ad30d6a7b371a9da9d50e9c18a4416610da9\n        /* \"contracts/Taxi.sol\":2085:2094  rideCount */\n      sload(0x01)\n        /* \"contracts/Taxi.sol\":2095:2103  _request */\n      dup3\n        /* \"contracts/Taxi.sol\":2105:2111  _price */\n      dup5\n        /* \"contracts/Taxi.sol\":2113:2123  msg.sender */\n      caller\n        /* \"contracts/Taxi.sol\":2073:2124  rideCreated(rideCount,_request, _price, msg.sender) */\n      mload(0x40)\n      tag_75\n      swap5\n      swap4\n      swap3\n      swap2\n      swap1\n      tag_76\n      jump\t// in\n    tag_75:\n      mload(0x40)\n      dup1\n      swap2\n      sub\n      swap1\n      log1\n        /* \"contracts/Taxi.sol\":1612:2128  {\r... */\n      pop\n        /* \"contracts/Taxi.sol\":1561:2128  function createRide(uint _id , uint _price) public {\r... */\n      pop\n      pop\n      jump\t// out\n        /* \"contracts/Taxi.sol\":970:1468  function requestRide(string memory _fromLocation, string memory _toLocation) public {   \r... */\n    tag_29:\n        /* \"contracts/Taxi.sol\":1102:1103  0 */\n      0x00\n        /* \"contracts/Taxi.sol\":1078:1091  _fromLocation */\n      dup3\n        /* \"contracts/Taxi.sol\":1072:1099  bytes(_fromLocation).length */\n      mload\n        /* \"contracts/Taxi.sol\":1072:1103  bytes(_fromLocation).length > 0 */\n      gt\n        /* \"contracts/Taxi.sol\":1064:1104  require(bytes(_fromLocation).length > 0) */\n      tag_78\n      jumpi\n      0x00\n      dup1\n      revert\n    tag_78:\n        /* \"contracts/Taxi.sol\":1147:1148  0 */\n      0x00\n        /* \"contracts/Taxi.sol\":1125:1136  _toLocation */\n      dup2\n        /* \"contracts/Taxi.sol\":1119:1144  bytes(_toLocation).length */\n      mload\n        /* \"contracts/Taxi.sol\":1119:1148  bytes(_toLocation).length > 0 */\n      gt\n        /* \"contracts/Taxi.sol\":1111:1149  require(bytes(_toLocation).length > 0) */\n      tag_79\n      jumpi\n      0x00\n      dup1\n      revert\n    tag_79:\n        /* \"contracts/Taxi.sol\":1158:1170  requestCount */\n      0x02\n      0x00\n        /* \"contracts/Taxi.sol\":1158:1173  requestCount ++ */\n      dup2\n      sload\n      dup1\n      swap3\n      swap2\n      swap1\n      tag_80\n      swap1\n      tag_71\n      jump\t// in\n    tag_80:\n      swap2\n      swap1\n      pop\n      sstore\n      pop\n        /* \"contracts/Taxi.sol\":1312:1373  Request(requestCount, _fromLocation, _toLocation, msg.sender) */\n      mload(0x40)\n      dup1\n      0x80\n      add\n      0x40\n      mstore\n      dup1\n        /* \"contracts/Taxi.sol\":1320:1332  requestCount */\n      sload(0x02)\n        /* \"contracts/Taxi.sol\":1312:1373  Request(requestCount, _fromLocation, _toLocation, msg.sender) */\n      dup2\n      mstore\n      0x20\n      add\n        /* \"contracts/Taxi.sol\":1334:1347  _fromLocation */\n      dup4\n        /* \"contracts/Taxi.sol\":1312:1373  Request(requestCount, _fromLocation, _toLocation, msg.sender) */\n      dup2\n      mstore\n      0x20\n      add\n        /* \"contracts/Taxi.sol\":1349:1360  _toLocation */\n      dup3\n        /* \"contracts/Taxi.sol\":1312:1373  Request(requestCount, _fromLocation, _toLocation, msg.sender) */\n      dup2\n      mstore\n      0x20\n      add\n        /* \"contracts/Taxi.sol\":1362:1372  msg.sender */\n      caller\n        /* \"contracts/Taxi.sol\":1312:1373  Request(requestCount, _fromLocation, _toLocation, msg.sender) */\n      0xffffffffffffffffffffffffffffffffffffffff\n      and\n      dup2\n      mstore\n      pop\n        /* \"contracts/Taxi.sol\":1287:1295  requests */\n      0x03\n        /* \"contracts/Taxi.sol\":1287:1309  requests[requestCount] */\n      0x00\n        /* \"contracts/Taxi.sol\":1296:1308  requestCount */\n      sload(0x02)\n        /* \"contracts/Taxi.sol\":1287:1309  requests[requestCount] */\n      dup2\n      mstore\n      0x20\n      add\n      swap1\n      dup2\n      mstore\n      0x20\n      add\n      0x00\n      keccak256\n        /* \"contracts/Taxi.sol\":1287:1373  requests[requestCount] = Request(requestCount, _fromLocation, _toLocation, msg.sender) */\n      0x00\n      dup3\n      add\n      mload\n      dup2\n      0x00\n      add\n      sstore\n      0x20\n      dup3\n      add\n      mload\n      dup2\n      0x01\n      add\n      swap1\n      dup1\n      mload\n      swap1\n      0x20\n      add\n      swap1\n      tag_81\n      swap3\n      swap2\n      swap1\n      tag_73\n      jump\t// in\n    tag_81:\n      pop\n      0x40\n      dup3\n      add\n      mload\n      dup2\n      0x02\n      add\n      swap1\n      dup1\n      mload\n      swap1\n      0x20\n      add\n      swap1\n      tag_82\n      swap3\n      swap2\n      swap1\n      tag_73\n      jump\t// in\n    tag_82:\n      pop\n      0x60\n      dup3\n      add\n      mload\n      dup2\n      0x03\n      add\n      exp(0x0100, 0x00)\n      dup2\n      sload\n      dup2\n      0xffffffffffffffffffffffffffffffffffffffff\n      mul\n      not\n      and\n      swap1\n      dup4\n      0xffffffffffffffffffffffffffffffffffffffff\n      and\n      mul\n      or\n      swap1\n      sstore\n      pop\n      swap1\n      pop\n      pop\n        /* \"contracts/Taxi.sol\":1401:1464  reqCreated(requestCount, _fromLocation,_toLocation, msg.sender) */\n      0xefa4f9cbfa92b58b4d32c3b7b7169882631ee9b0e7bfdfd1e4a6030bdff8b66e\n        /* \"contracts/Taxi.sol\":1412:1424  requestCount */\n      sload(0x02)\n        /* \"contracts/Taxi.sol\":1426:1439  _fromLocation */\n      dup4\n        /* \"contracts/Taxi.sol\":1440:1451  _toLocation */\n      dup4\n        /* \"contracts/Taxi.sol\":1453:1463  msg.sender */\n      caller\n        /* \"contracts/Taxi.sol\":1401:1464  reqCreated(requestCount, _fromLocation,_toLocation, msg.sender) */\n      mload(0x40)\n      tag_83\n      swap5\n      swap4\n      swap3\n      swap2\n      swap1\n      tag_19\n      jump\t// in\n    tag_83:\n      mload(0x40)\n      dup1\n      swap2\n      sub\n      swap1\n      log1\n        /* \"contracts/Taxi.sol\":970:1468  function requestRide(string memory _fromLocation, string memory _toLocation) public {   \r... */\n      pop\n      pop\n      jump\t// out\n        /* \"contracts/Taxi.sol\":2347:2929  function startRide(uint _id) public payable {       \r... */\n    tag_32:\n        /* \"contracts/Taxi.sol\":2448:2465  Ride memory _ride */\n      0x00\n        /* \"contracts/Taxi.sol\":2468:2473  rides */\n      0x04\n        /* \"contracts/Taxi.sol\":2468:2478  rides[_id] */\n      0x00\n        /* \"contracts/Taxi.sol\":2474:2477  _id */\n      dup4\n        /* \"contracts/Taxi.sol\":2468:2478  rides[_id] */\n      dup2\n      mstore\n      0x20\n      add\n      swap1\n      dup2\n      mstore\n      0x20\n      add\n      0x00\n      keccak256\n        /* \"contracts/Taxi.sol\":2448:2478  Ride memory _ride = rides[_id] */\n      mload(0x40)\n      dup1\n      0x80\n      add\n      0x40\n      mstore\n      swap1\n      dup2\n      0x00\n      dup3\n      add\n      sload\n      dup2\n      mstore\n      0x20\n      add\n      0x01\n      dup3\n      add\n      mload(0x40)\n      dup1\n      0x80\n      add\n      0x40\n      mstore\n      swap1\n      dup2\n      0x00\n      dup3\n      add\n      sload\n      dup2\n      mstore\n      0x20\n      add\n      0x01\n      dup3\n      add\n      dup1\n      sload\n      tag_85\n      swap1\n      tag_34\n      jump\t// in\n    tag_85:\n      dup1\n      0x1f\n      add\n      0x20\n      dup1\n      swap2\n      div\n      mul\n      0x20\n      add\n      mload(0x40)\n      swap1\n      dup2\n      add\n      0x40\n      mstore\n      dup1\n      swap3\n      swap2\n      swap1\n      dup2\n      dup2\n      mstore\n      0x20\n      add\n      dup3\n      dup1\n      sload\n      tag_86\n      swap1\n      tag_34\n      jump\t// in\n    tag_86:\n      dup1\n      iszero\n      tag_87\n      jumpi\n      dup1\n      0x1f\n      lt\n      tag_88\n      jumpi\n      0x0100\n      dup1\n      dup4\n      sload\n      div\n      mul\n      dup4\n      mstore\n      swap2\n      0x20\n      add\n      swap2\n      jump(tag_87)\n    tag_88:\n      dup3\n      add\n      swap2\n      swap1\n      0x00\n      mstore\n      keccak256(0x00, 0x20)\n      swap1\n    tag_89:\n      dup2\n      sload\n      dup2\n      mstore\n      swap1\n      0x01\n      add\n      swap1\n      0x20\n      add\n      dup1\n      dup4\n      gt\n      tag_89\n      jumpi\n      dup3\n      swap1\n      sub\n      0x1f\n      and\n      dup3\n      add\n      swap2\n    tag_87:\n      pop\n      pop\n      pop\n      pop\n      pop\n      dup2\n      mstore\n      0x20\n      add\n      0x02\n      dup3\n      add\n      dup1\n      sload\n      tag_90\n      swap1\n      tag_34\n      jump\t// in\n    tag_90:\n      dup1\n      0x1f\n      add\n      0x20\n      dup1\n      swap2\n      div\n      mul\n      0x20\n      add\n      mload(0x40)\n      swap1\n      dup2\n      add\n      0x40\n      mstore\n      dup1\n      swap3\n      swap2\n      swap1\n      dup2\n      dup2\n      mstore\n      0x20\n      add\n      dup3\n      dup1\n      sload\n      tag_91\n      swap1\n      tag_34\n      jump\t// in\n    tag_91:\n      dup1\n      iszero\n      tag_92\n      jumpi\n      dup1\n      0x1f\n      lt\n      tag_93\n      jumpi\n      0x0100\n      dup1\n      dup4\n      sload\n      div\n      mul\n      dup4\n      mstore\n      swap2\n      0x20\n      add\n      swap2\n      jump(tag_92)\n    tag_93:\n      dup3\n      add\n      swap2\n      swap1\n      0x00\n      mstore\n      keccak256(0x00, 0x20)\n      swap1\n    tag_94:\n      dup2\n      sload\n      dup2\n      mstore\n      swap1\n      0x01\n      add\n      swap1\n      0x20\n      add\n      dup1\n      dup4\n      gt\n      tag_94\n      jumpi\n      dup3\n      swap1\n      sub\n      0x1f\n      and\n      dup3\n      add\n      swap2\n    tag_92:\n      pop\n      pop\n      pop\n      pop\n      pop\n      dup2\n      mstore\n      0x20\n      add\n      0x03\n      dup3\n      add\n      0x00\n      swap1\n      sload\n      swap1\n      0x0100\n      exp\n      swap1\n      div\n      0xffffffffffffffffffffffffffffffffffffffff\n      and\n      0xffffffffffffffffffffffffffffffffffffffff\n      and\n      0xffffffffffffffffffffffffffffffffffffffff\n      and\n      dup2\n      mstore\n      pop\n      pop\n      dup2\n      mstore\n      0x20\n      add\n      0x05\n      dup3\n      add\n      sload\n      dup2\n      mstore\n      0x20\n      add\n      0x06\n      dup3\n      add\n      0x00\n      swap1\n      sload\n      swap1\n      0x0100\n      exp\n      swap1\n      div\n      0xffffffffffffffffffffffffffffffffffffffff\n      and\n      0xffffffffffffffffffffffffffffffffffffffff\n      and\n      0xffffffffffffffffffffffffffffffffffffffff\n      and\n      dup2\n      mstore\n      pop\n      pop\n      swap1\n      pop\n        /* \"contracts/Taxi.sol\":2528:2543  address _driver */\n      0x00\n        /* \"contracts/Taxi.sol\":2546:2551  _ride */\n      dup2\n        /* \"contracts/Taxi.sol\":2546:2558  _ride.driver */\n      0x60\n      add\n      mload\n        /* \"contracts/Taxi.sol\":2528:2558  address _driver = _ride.driver */\n      swap1\n      pop\n        /* \"contracts/Taxi.sol\":2587:2588  0 */\n      0x00\n        /* \"contracts/Taxi.sol\":2576:2581  _ride */\n      dup3\n        /* \"contracts/Taxi.sol\":2576:2584  _ride.id */\n      0x00\n      add\n      mload\n        /* \"contracts/Taxi.sol\":2576:2588  _ride.id > 0 */\n      gt\n        /* \"contracts/Taxi.sol\":2576:2613  _ride.id > 0 && _ride.id <= rideCount */\n      dup1\n      iszero\n      tag_95\n      jumpi\n      pop\n        /* \"contracts/Taxi.sol\":2604:2613  rideCount */\n      sload(0x01)\n        /* \"contracts/Taxi.sol\":2592:2597  _ride */\n      dup3\n        /* \"contracts/Taxi.sol\":2592:2600  _ride.id */\n      0x00\n      add\n      mload\n        /* \"contracts/Taxi.sol\":2592:2613  _ride.id <= rideCount */\n      gt\n      iszero\n        /* \"contracts/Taxi.sol\":2576:2613  _ride.id > 0 && _ride.id <= rideCount */\n    tag_95:\n        /* \"contracts/Taxi.sol\":2568:2626  require(_ride.id > 0 && _ride.id <= rideCount, \"No rides\") */\n      tag_96\n      jumpi\n      mload(0x40)\n      0x08c379a000000000000000000000000000000000000000000000000000000000\n      dup2\n      mstore\n      0x04\n      add\n      tag_97\n      swap1\n      tag_98\n      jump\t// in\n    tag_97:\n      mload(0x40)\n      dup1\n      swap2\n      sub\n      swap1\n      revert\n    tag_96:\n        /* \"contracts/Taxi.sol\":2658:2663  _ride */\n      dup2\n        /* \"contracts/Taxi.sol\":2658:2669  _ride.price */\n      0x40\n      add\n      mload\n        /* \"contracts/Taxi.sol\":2645:2654  msg.value */\n      callvalue\n        /* \"contracts/Taxi.sol\":2645:2669  msg.value >= _ride.price */\n      lt\n      iszero\n        /* \"contracts/Taxi.sol\":2637:2690  require(msg.value >= _ride.price, \"Ether not enough\") */\n      tag_99\n      jumpi\n      mload(0x40)\n      0x08c379a000000000000000000000000000000000000000000000000000000000\n      dup2\n      mstore\n      0x04\n      add\n      tag_100\n      swap1\n      tag_101\n      jump\t// in\n    tag_100:\n      mload(0x40)\n      dup1\n      swap2\n      sub\n      swap1\n      revert\n    tag_99:\n        /* \"contracts/Taxi.sol\":2720:2730  msg.sender */\n      caller\n        /* \"contracts/Taxi.sol\":2706:2730  _ride.driver!=msg.sender */\n      0xffffffffffffffffffffffffffffffffffffffff\n      and\n        /* \"contracts/Taxi.sol\":2706:2711  _ride */\n      dup3\n        /* \"contracts/Taxi.sol\":2706:2718  _ride.driver */\n      0x60\n      add\n      mload\n        /* \"contracts/Taxi.sol\":2706:2730  _ride.driver!=msg.sender */\n      0xffffffffffffffffffffffffffffffffffffffff\n      and\n      eq\n      iszero\n        /* \"contracts/Taxi.sol\":2698:2767  require(_ride.driver!=msg.sender, \"The Driver cannot start the ride\") */\n      tag_102\n      jumpi\n      mload(0x40)\n      0x08c379a000000000000000000000000000000000000000000000000000000000\n      dup2\n      mstore\n      0x04\n      add\n      tag_103\n      swap1\n      tag_104\n      jump\t// in\n    tag_103:\n      mload(0x40)\n      dup1\n      swap2\n      sub\n      swap1\n      revert\n    tag_102:\n        /* \"contracts/Taxi.sol\":2833:2840  _driver */\n      dup1\n        /* \"contracts/Taxi.sol\":2825:2850  payable(_driver).transfer */\n      0xffffffffffffffffffffffffffffffffffffffff\n      and\n        /* \"contracts/Taxi.sol\":2825:2861  payable(_driver).transfer(msg.value) */\n      0x08fc\n        /* \"contracts/Taxi.sol\":2851:2860  msg.value */\n      callvalue\n        /* \"contracts/Taxi.sol\":2825:2861  payable(_driver).transfer(msg.value) */\n      swap1\n      dup2\n      iszero\n      mul\n      swap1\n      mload(0x40)\n      0x00\n      mload(0x40)\n      dup1\n      dup4\n      sub\n      dup2\n      dup6\n      dup9\n      dup9\n      call\n      swap4\n      pop\n      pop\n      pop\n      pop\n      iszero\n      dup1\n      iszero\n      tag_106\n      jumpi\n      returndatasize\n      0x00\n      dup1\n      returndatacopy\n      revert(0x00, returndatasize)\n    tag_106:\n      pop\n        /* \"contracts/Taxi.sol\":2890:2925  rideStarted(rideCount, _ride.price) */\n      0x47aedad9a794305876e0950ef3c7a496c4a29976f0f5342b139f322241bc387c\n        /* \"contracts/Taxi.sol\":2902:2911  rideCount */\n      sload(0x01)\n        /* \"contracts/Taxi.sol\":2913:2918  _ride */\n      dup4\n        /* \"contracts/Taxi.sol\":2913:2924  _ride.price */\n      0x40\n      add\n      mload\n        /* \"contracts/Taxi.sol\":2890:2925  rideStarted(rideCount, _ride.price) */\n      mload(0x40)\n      tag_107\n      swap3\n      swap2\n      swap1\n      tag_108\n      jump\t// in\n    tag_107:\n      mload(0x40)\n      dup1\n      swap2\n      sub\n      swap1\n      log1\n        /* \"contracts/Taxi.sol\":2391:2929  {       \r... */\n      pop\n      pop\n        /* \"contracts/Taxi.sol\":2347:2929  function startRide(uint _id) public payable {       \r... */\n      pop\n      jump\t// out\n    tag_73:\n      dup3\n      dup1\n      sload\n      tag_109\n      swap1\n      tag_34\n      jump\t// in\n    tag_109:\n      swap1\n      0x00\n      mstore\n      keccak256(0x00, 0x20)\n      swap1\n      0x1f\n      add\n      0x20\n      swap1\n      div\n      dup2\n      add\n      swap3\n      dup3\n      tag_111\n      jumpi\n      0x00\n      dup6\n      sstore\n      jump(tag_110)\n    tag_111:\n      dup3\n      0x1f\n      lt\n      tag_112\n      jumpi\n      dup1\n      mload\n      not(0xff)\n      and\n      dup4\n      dup1\n      add\n      or\n      dup6\n      sstore\n      jump(tag_110)\n    tag_112:\n      dup3\n      dup1\n      add\n      0x01\n      add\n      dup6\n      sstore\n      dup3\n      iszero\n      tag_110\n      jumpi\n      swap2\n      dup3\n      add\n    tag_113:\n      dup3\n      dup2\n      gt\n      iszero\n      tag_114\n      jumpi\n      dup3\n      mload\n      dup3\n      sstore\n      swap2\n      0x20\n      add\n      swap2\n      swap1\n      0x01\n      add\n      swap1\n      jump(tag_113)\n    tag_114:\n    tag_110:\n      pop\n      swap1\n      pop\n      tag_115\n      swap2\n      swap1\n      tag_116\n      jump\t// in\n    tag_115:\n      pop\n      swap1\n      jump\t// out\n    tag_116:\n    tag_117:\n      dup1\n      dup3\n      gt\n      iszero\n      tag_118\n      jumpi\n      0x00\n      dup2\n      0x00\n      swap1\n      sstore\n      pop\n      0x01\n      add\n      jump(tag_117)\n    tag_118:\n      pop\n      swap1\n      jump\t// out\n        /* \"#utility.yul\":7:419   */\n    tag_120:\n        /* \"#utility.yul\":85:90   */\n      0x00\n        /* \"#utility.yul\":110:176   */\n      tag_122\n        /* \"#utility.yul\":126:175   */\n      tag_123\n        /* \"#utility.yul\":168:174   */\n      dup5\n        /* \"#utility.yul\":126:175   */\n      tag_124\n      jump\t// in\n    tag_123:\n        /* \"#utility.yul\":110:176   */\n      tag_125\n      jump\t// in\n    tag_122:\n        /* \"#utility.yul\":101:176   */\n      swap1\n      pop\n        /* \"#utility.yul\":199:205   */\n      dup3\n        /* \"#utility.yul\":192:197   */\n      dup2\n        /* \"#utility.yul\":185:206   */\n      mstore\n        /* \"#utility.yul\":237:241   */\n      0x20\n        /* \"#utility.yul\":230:235   */\n      dup2\n        /* \"#utility.yul\":226:242   */\n      add\n        /* \"#utility.yul\":275:278   */\n      dup5\n        /* \"#utility.yul\":266:272   */\n      dup5\n        /* \"#utility.yul\":261:264   */\n      dup5\n        /* \"#utility.yul\":257:273   */\n      add\n        /* \"#utility.yul\":254:279   */\n      gt\n        /* \"#utility.yul\":251:363   */\n      iszero\n      tag_126\n      jumpi\n        /* \"#utility.yul\":282:361   */\n      tag_127\n      tag_128\n      jump\t// in\n    tag_127:\n        /* \"#utility.yul\":251:363   */\n    tag_126:\n        /* \"#utility.yul\":372:413   */\n      tag_129\n        /* \"#utility.yul\":406:412   */\n      dup5\n        /* \"#utility.yul\":401:404   */\n      dup3\n        /* \"#utility.yul\":396:399   */\n      dup6\n        /* \"#utility.yul\":372:413   */\n      tag_130\n      jump\t// in\n    tag_129:\n        /* \"#utility.yul\":91:419   */\n      pop\n        /* \"#utility.yul\":7:419   */\n      swap4\n      swap3\n      pop\n      pop\n      pop\n      jump\t// out\n        /* \"#utility.yul\":439:779   */\n    tag_131:\n        /* \"#utility.yul\":495:500   */\n      0x00\n        /* \"#utility.yul\":544:547   */\n      dup3\n        /* \"#utility.yul\":537:541   */\n      0x1f\n        /* \"#utility.yul\":529:535   */\n      dup4\n        /* \"#utility.yul\":525:542   */\n      add\n        /* \"#utility.yul\":521:548   */\n      slt\n        /* \"#utility.yul\":511:633   */\n      tag_133\n      jumpi\n        /* \"#utility.yul\":552:631   */\n      tag_134\n      tag_135\n      jump\t// in\n    tag_134:\n        /* \"#utility.yul\":511:633   */\n    tag_133:\n        /* \"#utility.yul\":669:675   */\n      dup2\n        /* \"#utility.yul\":656:676   */\n      calldataload\n        /* \"#utility.yul\":694:773   */\n      tag_136\n        /* \"#utility.yul\":769:772   */\n      dup5\n        /* \"#utility.yul\":761:767   */\n      dup3\n        /* \"#utility.yul\":754:758   */\n      0x20\n        /* \"#utility.yul\":746:752   */\n      dup7\n        /* \"#utility.yul\":742:759   */\n      add\n        /* \"#utility.yul\":694:773   */\n      tag_120\n      jump\t// in\n    tag_136:\n        /* \"#utility.yul\":685:773   */\n      swap2\n      pop\n        /* \"#utility.yul\":501:779   */\n      pop\n        /* \"#utility.yul\":439:779   */\n      swap3\n      swap2\n      pop\n      pop\n      jump\t// out\n        /* \"#utility.yul\":785:924   */\n    tag_137:\n        /* \"#utility.yul\":831:836   */\n      0x00\n        /* \"#utility.yul\":869:875   */\n      dup2\n        /* \"#utility.yul\":856:876   */\n      calldataload\n        /* \"#utility.yul\":847:876   */\n      swap1\n      pop\n        /* \"#utility.yul\":885:918   */\n      tag_139\n        /* \"#utility.yul\":912:917   */\n      dup2\n        /* \"#utility.yul\":885:918   */\n      tag_140\n      jump\t// in\n    tag_139:\n        /* \"#utility.yul\":785:924   */\n      swap3\n      swap2\n      pop\n      pop\n      jump\t// out\n        /* \"#utility.yul\":930:1764   */\n    tag_28:\n        /* \"#utility.yul\":1018:1024   */\n      0x00\n        /* \"#utility.yul\":1026:1032   */\n      dup1\n        /* \"#utility.yul\":1075:1077   */\n      0x40\n        /* \"#utility.yul\":1063:1072   */\n      dup4\n        /* \"#utility.yul\":1054:1061   */\n      dup6\n        /* \"#utility.yul\":1050:1073   */\n      sub\n        /* \"#utility.yul\":1046:1078   */\n      slt\n        /* \"#utility.yul\":1043:1162   */\n      iszero\n      tag_142\n      jumpi\n        /* \"#utility.yul\":1081:1160   */\n      tag_143\n      tag_144\n      jump\t// in\n    tag_143:\n        /* \"#utility.yul\":1043:1162   */\n    tag_142:\n        /* \"#utility.yul\":1229:1230   */\n      0x00\n        /* \"#utility.yul\":1218:1227   */\n      dup4\n        /* \"#utility.yul\":1214:1231   */\n      add\n        /* \"#utility.yul\":1201:1232   */\n      calldataload\n        /* \"#utility.yul\":1259:1277   */\n      0xffffffffffffffff\n        /* \"#utility.yul\":1251:1257   */\n      dup2\n        /* \"#utility.yul\":1248:1278   */\n      gt\n        /* \"#utility.yul\":1245:1362   */\n      iszero\n      tag_145\n      jumpi\n        /* \"#utility.yul\":1281:1360   */\n      tag_146\n      tag_147\n      jump\t// in\n    tag_146:\n        /* \"#utility.yul\":1245:1362   */\n    tag_145:\n        /* \"#utility.yul\":1386:1449   */\n      tag_148\n        /* \"#utility.yul\":1441:1448   */\n      dup6\n        /* \"#utility.yul\":1432:1438   */\n      dup3\n        /* \"#utility.yul\":1421:1430   */\n      dup7\n        /* \"#utility.yul\":1417:1439   */\n      add\n        /* \"#utility.yul\":1386:1449   */\n      tag_131\n      jump\t// in\n    tag_148:\n        /* \"#utility.yul\":1376:1449   */\n      swap3\n      pop\n        /* \"#utility.yul\":1172:1459   */\n      pop\n        /* \"#utility.yul\":1526:1528   */\n      0x20\n        /* \"#utility.yul\":1515:1524   */\n      dup4\n        /* \"#utility.yul\":1511:1529   */\n      add\n        /* \"#utility.yul\":1498:1530   */\n      calldataload\n        /* \"#utility.yul\":1557:1575   */\n      0xffffffffffffffff\n        /* \"#utility.yul\":1549:1555   */\n      dup2\n        /* \"#utility.yul\":1546:1576   */\n      gt\n        /* \"#utility.yul\":1543:1660   */\n      iszero\n      tag_149\n      jumpi\n        /* \"#utility.yul\":1579:1658   */\n      tag_150\n      tag_147\n      jump\t// in\n    tag_150:\n        /* \"#utility.yul\":1543:1660   */\n    tag_149:\n        /* \"#utility.yul\":1684:1747   */\n      tag_151\n        /* \"#utility.yul\":1739:1746   */\n      dup6\n        /* \"#utility.yul\":1730:1736   */\n      dup3\n        /* \"#utility.yul\":1719:1728   */\n      dup7\n        /* \"#utility.yul\":1715:1737   */\n      add\n        /* \"#utility.yul\":1684:1747   */\n      tag_131\n      jump\t// in\n    tag_151:\n        /* \"#utility.yul\":1674:1747   */\n      swap2\n      pop\n        /* \"#utility.yul\":1469:1757   */\n      pop\n        /* \"#utility.yul\":930:1764   */\n      swap3\n      pop\n      swap3\n      swap1\n      pop\n      jump\t// out\n        /* \"#utility.yul\":1770:2099   */\n    tag_10:\n        /* \"#utility.yul\":1829:1835   */\n      0x00\n        /* \"#utility.yul\":1878:1880   */\n      0x20\n        /* \"#utility.yul\":1866:1875   */\n      dup3\n        /* \"#utility.yul\":1857:1864   */\n      dup5\n        /* \"#utility.yul\":1853:1876   */\n      sub\n        /* \"#utility.yul\":1849:1881   */\n      slt\n        /* \"#utility.yul\":1846:1965   */\n      iszero\n      tag_153\n      jumpi\n        /* \"#utility.yul\":1884:1963   */\n      tag_154\n      tag_144\n      jump\t// in\n    tag_154:\n        /* \"#utility.yul\":1846:1965   */\n    tag_153:\n        /* \"#utility.yul\":2004:2005   */\n      0x00\n        /* \"#utility.yul\":2029:2082   */\n      tag_155\n        /* \"#utility.yul\":2074:2081   */\n      dup5\n        /* \"#utility.yul\":2065:2071   */\n      dup3\n        /* \"#utility.yul\":2054:2063   */\n      dup6\n        /* \"#utility.yul\":2050:2072   */\n      add\n        /* \"#utility.yul\":2029:2082   */\n      tag_137\n      jump\t// in\n    tag_155:\n        /* \"#utility.yul\":2019:2082   */\n      swap2\n      pop\n        /* \"#utility.yul\":1975:2092   */\n      pop\n        /* \"#utility.yul\":1770:2099   */\n      swap3\n      swap2\n      pop\n      pop\n      jump\t// out\n        /* \"#utility.yul\":2105:2579   */\n    tag_23:\n        /* \"#utility.yul\":2173:2179   */\n      0x00\n        /* \"#utility.yul\":2181:2187   */\n      dup1\n        /* \"#utility.yul\":2230:2232   */\n      0x40\n        /* \"#utility.yul\":2218:2227   */\n      dup4\n        /* \"#utility.yul\":2209:2216   */\n      dup6\n        /* \"#utility.yul\":2205:2228   */\n      sub\n        /* \"#utility.yul\":2201:2233   */\n      slt\n        /* \"#utility.yul\":2198:2317   */\n      iszero\n      tag_157\n      jumpi\n        /* \"#utility.yul\":2236:2315   */\n      tag_158\n      tag_144\n      jump\t// in\n    tag_158:\n        /* \"#utility.yul\":2198:2317   */\n    tag_157:\n        /* \"#utility.yul\":2356:2357   */\n      0x00\n        /* \"#utility.yul\":2381:2434   */\n      tag_159\n        /* \"#utility.yul\":2426:2433   */\n      dup6\n        /* \"#utility.yul\":2417:2423   */\n      dup3\n        /* \"#utility.yul\":2406:2415   */\n      dup7\n        /* \"#utility.yul\":2402:2424   */\n      add\n        /* \"#utility.yul\":2381:2434   */\n      tag_137\n      jump\t// in\n    tag_159:\n        /* \"#utility.yul\":2371:2434   */\n      swap3\n      pop\n        /* \"#utility.yul\":2327:2444   */\n      pop\n        /* \"#utility.yul\":2483:2485   */\n      0x20\n        /* \"#utility.yul\":2509:2562   */\n      tag_160\n        /* \"#utility.yul\":2554:2561   */\n      dup6\n        /* \"#utility.yul\":2545:2551   */\n      dup3\n        /* \"#utility.yul\":2534:2543   */\n      dup7\n        /* \"#utility.yul\":2530:2552   */\n      add\n        /* \"#utility.yul\":2509:2562   */\n      tag_137\n      jump\t// in\n    tag_160:\n        /* \"#utility.yul\":2499:2562   */\n      swap2\n      pop\n        /* \"#utility.yul\":2454:2572   */\n      pop\n        /* \"#utility.yul\":2105:2579   */\n      swap3\n      pop\n      swap3\n      swap1\n      pop\n      jump\t// out\n        /* \"#utility.yul\":2585:2727   */\n    tag_161:\n        /* \"#utility.yul\":2688:2720   */\n      tag_163\n        /* \"#utility.yul\":2714:2719   */\n      dup2\n        /* \"#utility.yul\":2688:2720   */\n      tag_164\n      jump\t// in\n    tag_163:\n        /* \"#utility.yul\":2683:2686   */\n      dup3\n        /* \"#utility.yul\":2676:2721   */\n      mstore\n        /* \"#utility.yul\":2585:2727   */\n      pop\n      pop\n      jump\t// out\n        /* \"#utility.yul\":2733:2841   */\n    tag_165:\n        /* \"#utility.yul\":2810:2834   */\n      tag_167\n        /* \"#utility.yul\":2828:2833   */\n      dup2\n        /* \"#utility.yul\":2810:2834   */\n      tag_168\n      jump\t// in\n    tag_167:\n        /* \"#utility.yul\":2805:2808   */\n      dup3\n        /* \"#utility.yul\":2798:2835   */\n      mstore\n        /* \"#utility.yul\":2733:2841   */\n      pop\n      pop\n      jump\t// out\n        /* \"#utility.yul\":2847:2965   */\n    tag_169:\n        /* \"#utility.yul\":2934:2958   */\n      tag_171\n        /* \"#utility.yul\":2952:2957   */\n      dup2\n        /* \"#utility.yul\":2934:2958   */\n      tag_168\n      jump\t// in\n    tag_171:\n        /* \"#utility.yul\":2929:2932   */\n      dup3\n        /* \"#utility.yul\":2922:2959   */\n      mstore\n        /* \"#utility.yul\":2847:2965   */\n      pop\n      pop\n      jump\t// out\n        /* \"#utility.yul\":2971:3315   */\n    tag_172:\n        /* \"#utility.yul\":3049:3052   */\n      0x00\n        /* \"#utility.yul\":3077:3116   */\n      tag_174\n        /* \"#utility.yul\":3110:3115   */\n      dup3\n        /* \"#utility.yul\":3077:3116   */\n      tag_175\n      jump\t// in\n    tag_174:\n        /* \"#utility.yul\":3132:3193   */\n      tag_176\n        /* \"#utility.yul\":3186:3192   */\n      dup2\n        /* \"#utility.yul\":3181:3184   */\n      dup6\n        /* \"#utility.yul\":3132:3193   */\n      tag_177\n      jump\t// in\n    tag_176:\n        /* \"#utility.yul\":3125:3193   */\n      swap4\n      pop\n        /* \"#utility.yul\":3202:3254   */\n      tag_178\n        /* \"#utility.yul\":3247:3253   */\n      dup2\n        /* \"#utility.yul\":3242:3245   */\n      dup6\n        /* \"#utility.yul\":3235:3239   */\n      0x20\n        /* \"#utility.yul\":3228:3233   */\n      dup7\n        /* \"#utility.yul\":3224:3240   */\n      add\n        /* \"#utility.yul\":3202:3254   */\n      tag_179\n      jump\t// in\n    tag_178:\n        /* \"#utility.yul\":3279:3308   */\n      tag_180\n        /* \"#utility.yul\":3301:3307   */\n      dup2\n        /* \"#utility.yul\":3279:3308   */\n      tag_181\n      jump\t// in\n    tag_180:\n        /* \"#utility.yul\":3274:3277   */\n      dup5\n        /* \"#utility.yul\":3270:3309   */\n      add\n        /* \"#utility.yul\":3263:3309   */\n      swap2\n      pop\n        /* \"#utility.yul\":3053:3315   */\n      pop\n        /* \"#utility.yul\":2971:3315   */\n      swap3\n      swap2\n      pop\n      pop\n      jump\t// out\n        /* \"#utility.yul\":3321:3685   */\n    tag_182:\n        /* \"#utility.yul\":3409:3412   */\n      0x00\n        /* \"#utility.yul\":3437:3476   */\n      tag_184\n        /* \"#utility.yul\":3470:3475   */\n      dup3\n        /* \"#utility.yul\":3437:3476   */\n      tag_175\n      jump\t// in\n    tag_184:\n        /* \"#utility.yul\":3492:3563   */\n      tag_185\n        /* \"#utility.yul\":3556:3562   */\n      dup2\n        /* \"#utility.yul\":3551:3554   */\n      dup6\n        /* \"#utility.yul\":3492:3563   */\n      tag_186\n      jump\t// in\n    tag_185:\n        /* \"#utility.yul\":3485:3563   */\n      swap4\n      pop\n        /* \"#utility.yul\":3572:3624   */\n      tag_187\n        /* \"#utility.yul\":3617:3623   */\n      dup2\n        /* \"#utility.yul\":3612:3615   */\n      dup6\n        /* \"#utility.yul\":3605:3609   */\n      0x20\n        /* \"#utility.yul\":3598:3603   */\n      dup7\n        /* \"#utility.yul\":3594:3610   */\n      add\n        /* \"#utility.yul\":3572:3624   */\n      tag_179\n      jump\t// in\n    tag_187:\n        /* \"#utility.yul\":3649:3678   */\n      tag_188\n        /* \"#utility.yul\":3671:3677   */\n      dup2\n        /* \"#utility.yul\":3649:3678   */\n      tag_181\n      jump\t// in\n    tag_188:\n        /* \"#utility.yul\":3644:3647   */\n      dup5\n        /* \"#utility.yul\":3640:3679   */\n      add\n        /* \"#utility.yul\":3633:3679   */\n      swap2\n      pop\n        /* \"#utility.yul\":3413:3685   */\n      pop\n        /* \"#utility.yul\":3321:3685   */\n      swap3\n      swap2\n      pop\n      pop\n      jump\t// out\n        /* \"#utility.yul\":3691:4057   */\n    tag_189:\n        /* \"#utility.yul\":3833:3836   */\n      0x00\n        /* \"#utility.yul\":3854:3921   */\n      tag_191\n        /* \"#utility.yul\":3918:3920   */\n      0x10\n        /* \"#utility.yul\":3913:3916   */\n      dup4\n        /* \"#utility.yul\":3854:3921   */\n      tag_186\n      jump\t// in\n    tag_191:\n        /* \"#utility.yul\":3847:3921   */\n      swap2\n      pop\n        /* \"#utility.yul\":3930:4023   */\n      tag_192\n        /* \"#utility.yul\":4019:4022   */\n      dup3\n        /* \"#utility.yul\":3930:4023   */\n      tag_193\n      jump\t// in\n    tag_192:\n        /* \"#utility.yul\":4048:4050   */\n      0x20\n        /* \"#utility.yul\":4043:4046   */\n      dup3\n        /* \"#utility.yul\":4039:4051   */\n      add\n        /* \"#utility.yul\":4032:4051   */\n      swap1\n      pop\n        /* \"#utility.yul\":3691:4057   */\n      swap2\n      swap1\n      pop\n      jump\t// out\n        /* \"#utility.yul\":4063:4429   */\n    tag_194:\n        /* \"#utility.yul\":4205:4208   */\n      0x00\n        /* \"#utility.yul\":4226:4293   */\n      tag_196\n        /* \"#utility.yul\":4290:4292   */\n      0x20\n        /* \"#utility.yul\":4285:4288   */\n      dup4\n        /* \"#utility.yul\":4226:4293   */\n      tag_186\n      jump\t// in\n    tag_196:\n        /* \"#utility.yul\":4219:4293   */\n      swap2\n      pop\n        /* \"#utility.yul\":4302:4395   */\n      tag_197\n        /* \"#utility.yul\":4391:4394   */\n      dup3\n        /* \"#utility.yul\":4302:4395   */\n      tag_198\n      jump\t// in\n    tag_197:\n        /* \"#utility.yul\":4420:4422   */\n      0x20\n        /* \"#utility.yul\":4415:4418   */\n      dup3\n        /* \"#utility.yul\":4411:4423   */\n      add\n        /* \"#utility.yul\":4404:4423   */\n      swap1\n      pop\n        /* \"#utility.yul\":4063:4429   */\n      swap2\n      swap1\n      pop\n      jump\t// out\n        /* \"#utility.yul\":4435:4800   */\n    tag_199:\n        /* \"#utility.yul\":4577:4580   */\n      0x00\n        /* \"#utility.yul\":4598:4664   */\n      tag_201\n        /* \"#utility.yul\":4662:4663   */\n      0x08\n        /* \"#utility.yul\":4657:4660   */\n      dup4\n        /* \"#utility.yul\":4598:4664   */\n      tag_186\n      jump\t// in\n    tag_201:\n        /* \"#utility.yul\":4591:4664   */\n      swap2\n      pop\n        /* \"#utility.yul\":4673:4766   */\n      tag_202\n        /* \"#utility.yul\":4762:4765   */\n      dup3\n        /* \"#utility.yul\":4673:4766   */\n      tag_203\n      jump\t// in\n    tag_202:\n        /* \"#utility.yul\":4791:4793   */\n      0x20\n        /* \"#utility.yul\":4786:4789   */\n      dup3\n        /* \"#utility.yul\":4782:4794   */\n      add\n        /* \"#utility.yul\":4775:4794   */\n      swap1\n      pop\n        /* \"#utility.yul\":4435:4800   */\n      swap2\n      swap1\n      pop\n      jump\t// out\n        /* \"#utility.yul\":4806:5172   */\n    tag_204:\n        /* \"#utility.yul\":4948:4951   */\n      0x00\n        /* \"#utility.yul\":4969:5036   */\n      tag_206\n        /* \"#utility.yul\":5033:5035   */\n      0x23\n        /* \"#utility.yul\":5028:5031   */\n      dup4\n        /* \"#utility.yul\":4969:5036   */\n      tag_186\n      jump\t// in\n    tag_206:\n        /* \"#utility.yul\":4962:5036   */\n      swap2\n      pop\n        /* \"#utility.yul\":5045:5138   */\n      tag_207\n        /* \"#utility.yul\":5134:5137   */\n      dup3\n        /* \"#utility.yul\":5045:5138   */\n      tag_208\n      jump\t// in\n    tag_207:\n        /* \"#utility.yul\":5163:5165   */\n      0x40\n        /* \"#utility.yul\":5158:5161   */\n      dup3\n        /* \"#utility.yul\":5154:5166   */\n      add\n        /* \"#utility.yul\":5147:5166   */\n      swap1\n      pop\n        /* \"#utility.yul\":4806:5172   */\n      swap2\n      swap1\n      pop\n      jump\t// out\n        /* \"#utility.yul\":5228:6262   */\n    tag_209:\n        /* \"#utility.yul\":5343:5346   */\n      0x00\n        /* \"#utility.yul\":5379:5383   */\n      0x80\n        /* \"#utility.yul\":5374:5377   */\n      dup4\n        /* \"#utility.yul\":5370:5384   */\n      add\n        /* \"#utility.yul\":5464:5468   */\n      0x00\n        /* \"#utility.yul\":5457:5462   */\n      dup4\n        /* \"#utility.yul\":5453:5469   */\n      add\n        /* \"#utility.yul\":5447:5470   */\n      mload\n        /* \"#utility.yul\":5483:5546   */\n      tag_211\n        /* \"#utility.yul\":5540:5544   */\n      0x00\n        /* \"#utility.yul\":5535:5538   */\n      dup7\n        /* \"#utility.yul\":5531:5545   */\n      add\n        /* \"#utility.yul\":5517:5529   */\n      dup3\n        /* \"#utility.yul\":5483:5546   */\n      tag_212\n      jump\t// in\n    tag_211:\n        /* \"#utility.yul\":5394:5556   */\n      pop\n        /* \"#utility.yul\":5646:5650   */\n      0x20\n        /* \"#utility.yul\":5639:5644   */\n      dup4\n        /* \"#utility.yul\":5635:5651   */\n      add\n        /* \"#utility.yul\":5629:5652   */\n      mload\n        /* \"#utility.yul\":5699:5702   */\n      dup5\n        /* \"#utility.yul\":5693:5697   */\n      dup3\n        /* \"#utility.yul\":5689:5703   */\n      sub\n        /* \"#utility.yul\":5682:5686   */\n      0x20\n        /* \"#utility.yul\":5677:5680   */\n      dup7\n        /* \"#utility.yul\":5673:5687   */\n      add\n        /* \"#utility.yul\":5666:5704   */\n      mstore\n        /* \"#utility.yul\":5725:5798   */\n      tag_213\n        /* \"#utility.yul\":5793:5797   */\n      dup3\n        /* \"#utility.yul\":5779:5791   */\n      dup3\n        /* \"#utility.yul\":5725:5798   */\n      tag_172\n      jump\t// in\n    tag_213:\n        /* \"#utility.yul\":5717:5798   */\n      swap2\n      pop\n        /* \"#utility.yul\":5566:5809   */\n      pop\n        /* \"#utility.yul\":5897:5901   */\n      0x40\n        /* \"#utility.yul\":5890:5895   */\n      dup4\n        /* \"#utility.yul\":5886:5902   */\n      add\n        /* \"#utility.yul\":5880:5903   */\n      mload\n        /* \"#utility.yul\":5950:5953   */\n      dup5\n        /* \"#utility.yul\":5944:5948   */\n      dup3\n        /* \"#utility.yul\":5940:5954   */\n      sub\n        /* \"#utility.yul\":5933:5937   */\n      0x40\n        /* \"#utility.yul\":5928:5931   */\n      dup7\n        /* \"#utility.yul\":5924:5938   */\n      add\n        /* \"#utility.yul\":5917:5955   */\n      mstore\n        /* \"#utility.yul\":5976:6049   */\n      tag_214\n        /* \"#utility.yul\":6044:6048   */\n      dup3\n        /* \"#utility.yul\":6030:6042   */\n      dup3\n        /* \"#utility.yul\":5976:6049   */\n      tag_172\n      jump\t// in\n    tag_214:\n        /* \"#utility.yul\":5968:6049   */\n      swap2\n      pop\n        /* \"#utility.yul\":5819:6060   */\n      pop\n        /* \"#utility.yul\":6143:6147   */\n      0x60\n        /* \"#utility.yul\":6136:6141   */\n      dup4\n        /* \"#utility.yul\":6132:6148   */\n      add\n        /* \"#utility.yul\":6126:6149   */\n      mload\n        /* \"#utility.yul\":6162:6225   */\n      tag_215\n        /* \"#utility.yul\":6219:6223   */\n      0x60\n        /* \"#utility.yul\":6214:6217   */\n      dup7\n        /* \"#utility.yul\":6210:6224   */\n      add\n        /* \"#utility.yul\":6196:6208   */\n      dup3\n        /* \"#utility.yul\":6162:6225   */\n      tag_165\n      jump\t// in\n    tag_215:\n        /* \"#utility.yul\":6070:6235   */\n      pop\n        /* \"#utility.yul\":6252:6256   */\n      dup1\n        /* \"#utility.yul\":6245:6256   */\n      swap2\n      pop\n        /* \"#utility.yul\":5348:6262   */\n      pop\n        /* \"#utility.yul\":5228:6262   */\n      swap3\n      swap2\n      pop\n      pop\n      jump\t// out\n        /* \"#utility.yul\":6268:6376   */\n    tag_212:\n        /* \"#utility.yul\":6345:6369   */\n      tag_217\n        /* \"#utility.yul\":6363:6368   */\n      dup2\n        /* \"#utility.yul\":6345:6369   */\n      tag_218\n      jump\t// in\n    tag_217:\n        /* \"#utility.yul\":6340:6343   */\n      dup3\n        /* \"#utility.yul\":6333:6370   */\n      mstore\n        /* \"#utility.yul\":6268:6376   */\n      pop\n      pop\n      jump\t// out\n        /* \"#utility.yul\":6382:6500   */\n    tag_219:\n        /* \"#utility.yul\":6469:6493   */\n      tag_221\n        /* \"#utility.yul\":6487:6492   */\n      dup2\n        /* \"#utility.yul\":6469:6493   */\n      tag_218\n      jump\t// in\n    tag_221:\n        /* \"#utility.yul\":6464:6467   */\n      dup3\n        /* \"#utility.yul\":6457:6494   */\n      mstore\n        /* \"#utility.yul\":6382:6500   */\n      pop\n      pop\n      jump\t// out\n        /* \"#utility.yul\":6506:6925   */\n    tag_101:\n        /* \"#utility.yul\":6672:6676   */\n      0x00\n        /* \"#utility.yul\":6710:6712   */\n      0x20\n        /* \"#utility.yul\":6699:6708   */\n      dup3\n        /* \"#utility.yul\":6695:6713   */\n      add\n        /* \"#utility.yul\":6687:6713   */\n      swap1\n      pop\n        /* \"#utility.yul\":6759:6768   */\n      dup2\n        /* \"#utility.yul\":6753:6757   */\n      dup2\n        /* \"#utility.yul\":6749:6769   */\n      sub\n        /* \"#utility.yul\":6745:6746   */\n      0x00\n        /* \"#utility.yul\":6734:6743   */\n      dup4\n        /* \"#utility.yul\":6730:6747   */\n      add\n        /* \"#utility.yul\":6723:6770   */\n      mstore\n        /* \"#utility.yul\":6787:6918   */\n      tag_223\n        /* \"#utility.yul\":6913:6917   */\n      dup2\n        /* \"#utility.yul\":6787:6918   */\n      tag_189\n      jump\t// in\n    tag_223:\n        /* \"#utility.yul\":6779:6918   */\n      swap1\n      pop\n        /* \"#utility.yul\":6506:6925   */\n      swap2\n      swap1\n      pop\n      jump\t// out\n        /* \"#utility.yul\":6931:7350   */\n    tag_104:\n        /* \"#utility.yul\":7097:7101   */\n      0x00\n        /* \"#utility.yul\":7135:7137   */\n      0x20\n        /* \"#utility.yul\":7124:7133   */\n      dup3\n        /* \"#utility.yul\":7120:7138   */\n      add\n        /* \"#utility.yul\":7112:7138   */\n      swap1\n      pop\n        /* \"#utility.yul\":7184:7193   */\n      dup2\n        /* \"#utility.yul\":7178:7182   */\n      dup2\n        /* \"#utility.yul\":7174:7194   */\n      sub\n        /* \"#utility.yul\":7170:7171   */\n      0x00\n        /* \"#utility.yul\":7159:7168   */\n      dup4\n        /* \"#utility.yul\":7155:7172   */\n      add\n        /* \"#utility.yul\":7148:7195   */\n      mstore\n        /* \"#utility.yul\":7212:7343   */\n      tag_225\n        /* \"#utility.yul\":7338:7342   */\n      dup2\n        /* \"#utility.yul\":7212:7343   */\n      tag_194\n      jump\t// in\n    tag_225:\n        /* \"#utility.yul\":7204:7343   */\n      swap1\n      pop\n        /* \"#utility.yul\":6931:7350   */\n      swap2\n      swap1\n      pop\n      jump\t// out\n        /* \"#utility.yul\":7356:7775   */\n    tag_98:\n        /* \"#utility.yul\":7522:7526   */\n      0x00\n        /* \"#utility.yul\":7560:7562   */\n      0x20\n        /* \"#utility.yul\":7549:7558   */\n      dup3\n        /* \"#utility.yul\":7545:7563   */\n      add\n        /* \"#utility.yul\":7537:7563   */\n      swap1\n      pop\n        /* \"#utility.yul\":7609:7618   */\n      dup2\n        /* \"#utility.yul\":7603:7607   */\n      dup2\n        /* \"#utility.yul\":7599:7619   */\n      sub\n        /* \"#utility.yul\":7595:7596   */\n      0x00\n        /* \"#utility.yul\":7584:7593   */\n      dup4\n        /* \"#utility.yul\":7580:7597   */\n      add\n        /* \"#utility.yul\":7573:7620   */\n      mstore\n        /* \"#utility.yul\":7637:7768   */\n      tag_227\n        /* \"#utility.yul\":7763:7767   */\n      dup2\n        /* \"#utility.yul\":7637:7768   */\n      tag_199\n      jump\t// in\n    tag_227:\n        /* \"#utility.yul\":7629:7768   */\n      swap1\n      pop\n        /* \"#utility.yul\":7356:7775   */\n      swap2\n      swap1\n      pop\n      jump\t// out\n        /* \"#utility.yul\":7781:8200   */\n    tag_69:\n        /* \"#utility.yul\":7947:7951   */\n      0x00\n        /* \"#utility.yul\":7985:7987   */\n      0x20\n        /* \"#utility.yul\":7974:7983   */\n      dup3\n        /* \"#utility.yul\":7970:7988   */\n      add\n        /* \"#utility.yul\":7962:7988   */\n      swap1\n      pop\n        /* \"#utility.yul\":8034:8043   */\n      dup2\n        /* \"#utility.yul\":8028:8032   */\n      dup2\n        /* \"#utility.yul\":8024:8044   */\n      sub\n        /* \"#utility.yul\":8020:8021   */\n      0x00\n        /* \"#utility.yul\":8009:8018   */\n      dup4\n        /* \"#utility.yul\":8005:8022   */\n      add\n        /* \"#utility.yul\":7998:8045   */\n      mstore\n        /* \"#utility.yul\":8062:8193   */\n      tag_229\n        /* \"#utility.yul\":8188:8192   */\n      dup2\n        /* \"#utility.yul\":8062:8193   */\n      tag_204\n      jump\t// in\n    tag_229:\n        /* \"#utility.yul\":8054:8193   */\n      swap1\n      pop\n        /* \"#utility.yul\":7781:8200   */\n      swap2\n      swap1\n      pop\n      jump\t// out\n        /* \"#utility.yul\":8206:8941   */\n    tag_19:\n        /* \"#utility.yul\":8423:8427   */\n      0x00\n        /* \"#utility.yul\":8461:8464   */\n      0x80\n        /* \"#utility.yul\":8450:8459   */\n      dup3\n        /* \"#utility.yul\":8446:8465   */\n      add\n        /* \"#utility.yul\":8438:8465   */\n      swap1\n      pop\n        /* \"#utility.yul\":8475:8546   */\n      tag_231\n        /* \"#utility.yul\":8543:8544   */\n      0x00\n        /* \"#utility.yul\":8532:8541   */\n      dup4\n        /* \"#utility.yul\":8528:8545   */\n      add\n        /* \"#utility.yul\":8519:8525   */\n      dup8\n        /* \"#utility.yul\":8475:8546   */\n      tag_219\n      jump\t// in\n    tag_231:\n        /* \"#utility.yul\":8593:8602   */\n      dup2\n        /* \"#utility.yul\":8587:8591   */\n      dup2\n        /* \"#utility.yul\":8583:8603   */\n      sub\n        /* \"#utility.yul\":8578:8580   */\n      0x20\n        /* \"#utility.yul\":8567:8576   */\n      dup4\n        /* \"#utility.yul\":8563:8581   */\n      add\n        /* \"#utility.yul\":8556:8604   */\n      mstore\n        /* \"#utility.yul\":8621:8699   */\n      tag_232\n        /* \"#utility.yul\":8694:8698   */\n      dup2\n        /* \"#utility.yul\":8685:8691   */\n      dup7\n        /* \"#utility.yul\":8621:8699   */\n      tag_182\n      jump\t// in\n    tag_232:\n        /* \"#utility.yul\":8613:8699   */\n      swap1\n      pop\n        /* \"#utility.yul\":8746:8755   */\n      dup2\n        /* \"#utility.yul\":8740:8744   */\n      dup2\n        /* \"#utility.yul\":8736:8756   */\n      sub\n        /* \"#utility.yul\":8731:8733   */\n      0x40\n        /* \"#utility.yul\":8720:8729   */\n      dup4\n        /* \"#utility.yul\":8716:8734   */\n      add\n        /* \"#utility.yul\":8709:8757   */\n      mstore\n        /* \"#utility.yul\":8774:8852   */\n      tag_233\n        /* \"#utility.yul\":8847:8851   */\n      dup2\n        /* \"#utility.yul\":8838:8844   */\n      dup6\n        /* \"#utility.yul\":8774:8852   */\n      tag_182\n      jump\t// in\n    tag_233:\n        /* \"#utility.yul\":8766:8852   */\n      swap1\n      pop\n        /* \"#utility.yul\":8862:8934   */\n      tag_234\n        /* \"#utility.yul\":8930:8932   */\n      0x60\n        /* \"#utility.yul\":8919:8928   */\n      dup4\n        /* \"#utility.yul\":8915:8933   */\n      add\n        /* \"#utility.yul\":8906:8912   */\n      dup5\n        /* \"#utility.yul\":8862:8934   */\n      tag_169\n      jump\t// in\n    tag_234:\n        /* \"#utility.yul\":8206:8941   */\n      swap6\n      swap5\n      pop\n      pop\n      pop\n      pop\n      pop\n      jump\t// out\n        /* \"#utility.yul\":8947:9643   */\n    tag_76:\n        /* \"#utility.yul\":9170:9174   */\n      0x00\n        /* \"#utility.yul\":9208:9211   */\n      0x80\n        /* \"#utility.yul\":9197:9206   */\n      dup3\n        /* \"#utility.yul\":9193:9212   */\n      add\n        /* \"#utility.yul\":9185:9212   */\n      swap1\n      pop\n        /* \"#utility.yul\":9222:9293   */\n      tag_236\n        /* \"#utility.yul\":9290:9291   */\n      0x00\n        /* \"#utility.yul\":9279:9288   */\n      dup4\n        /* \"#utility.yul\":9275:9292   */\n      add\n        /* \"#utility.yul\":9266:9272   */\n      dup8\n        /* \"#utility.yul\":9222:9293   */\n      tag_219\n      jump\t// in\n    tag_236:\n        /* \"#utility.yul\":9340:9349   */\n      dup2\n        /* \"#utility.yul\":9334:9338   */\n      dup2\n        /* \"#utility.yul\":9330:9350   */\n      sub\n        /* \"#utility.yul\":9325:9327   */\n      0x20\n        /* \"#utility.yul\":9314:9323   */\n      dup4\n        /* \"#utility.yul\":9310:9328   */\n      add\n        /* \"#utility.yul\":9303:9351   */\n      mstore\n        /* \"#utility.yul\":9368:9472   */\n      tag_237\n        /* \"#utility.yul\":9467:9471   */\n      dup2\n        /* \"#utility.yul\":9458:9464   */\n      dup7\n        /* \"#utility.yul\":9368:9472   */\n      tag_209\n      jump\t// in\n    tag_237:\n        /* \"#utility.yul\":9360:9472   */\n      swap1\n      pop\n        /* \"#utility.yul\":9482:9554   */\n      tag_238\n        /* \"#utility.yul\":9550:9552   */\n      0x40\n        /* \"#utility.yul\":9539:9548   */\n      dup4\n        /* \"#utility.yul\":9535:9553   */\n      add\n        /* \"#utility.yul\":9526:9532   */\n      dup6\n        /* \"#utility.yul\":9482:9554   */\n      tag_219\n      jump\t// in\n    tag_238:\n        /* \"#utility.yul\":9564:9636   */\n      tag_239\n        /* \"#utility.yul\":9632:9634   */\n      0x60\n        /* \"#utility.yul\":9621:9630   */\n      dup4\n        /* \"#utility.yul\":9617:9635   */\n      add\n        /* \"#utility.yul\":9608:9614   */\n      dup5\n        /* \"#utility.yul\":9564:9636   */\n      tag_169\n      jump\t// in\n    tag_239:\n        /* \"#utility.yul\":8947:9643   */\n      swap6\n      swap5\n      pop\n      pop\n      pop\n      pop\n      pop\n      jump\t// out\n        /* \"#utility.yul\":9649:10377   */\n    tag_13:\n        /* \"#utility.yul\":9888:9892   */\n      0x00\n        /* \"#utility.yul\":9926:9929   */\n      0x80\n        /* \"#utility.yul\":9915:9924   */\n      dup3\n        /* \"#utility.yul\":9911:9930   */\n      add\n        /* \"#utility.yul\":9903:9930   */\n      swap1\n      pop\n        /* \"#utility.yul\":9940:10011   */\n      tag_241\n        /* \"#utility.yul\":10008:10009   */\n      0x00\n        /* \"#utility.yul\":9997:10006   */\n      dup4\n        /* \"#utility.yul\":9993:10010   */\n      add\n        /* \"#utility.yul\":9984:9990   */\n      dup8\n        /* \"#utility.yul\":9940:10011   */\n      tag_219\n      jump\t// in\n    tag_241:\n        /* \"#utility.yul\":10058:10067   */\n      dup2\n        /* \"#utility.yul\":10052:10056   */\n      dup2\n        /* \"#utility.yul\":10048:10068   */\n      sub\n        /* \"#utility.yul\":10043:10045   */\n      0x20\n        /* \"#utility.yul\":10032:10041   */\n      dup4\n        /* \"#utility.yul\":10028:10046   */\n      add\n        /* \"#utility.yul\":10021:10069   */\n      mstore\n        /* \"#utility.yul\":10086:10190   */\n      tag_242\n        /* \"#utility.yul\":10185:10189   */\n      dup2\n        /* \"#utility.yul\":10176:10182   */\n      dup7\n        /* \"#utility.yul\":10086:10190   */\n      tag_209\n      jump\t// in\n    tag_242:\n        /* \"#utility.yul\":10078:10190   */\n      swap1\n      pop\n        /* \"#utility.yul\":10200:10272   */\n      tag_243\n        /* \"#utility.yul\":10268:10270   */\n      0x40\n        /* \"#utility.yul\":10257:10266   */\n      dup4\n        /* \"#utility.yul\":10253:10271   */\n      add\n        /* \"#utility.yul\":10244:10250   */\n      dup6\n        /* \"#utility.yul\":10200:10272   */\n      tag_219\n      jump\t// in\n    tag_243:\n        /* \"#utility.yul\":10282:10370   */\n      tag_244\n        /* \"#utility.yul\":10366:10368   */\n      0x60\n        /* \"#utility.yul\":10355:10364   */\n      dup4\n        /* \"#utility.yul\":10351:10369   */\n      add\n        /* \"#utility.yul\":10342:10348   */\n      dup5\n        /* \"#utility.yul\":10282:10370   */\n      tag_161\n      jump\t// in\n    tag_244:\n        /* \"#utility.yul\":9649:10377   */\n      swap6\n      swap5\n      pop\n      pop\n      pop\n      pop\n      pop\n      jump\t// out\n        /* \"#utility.yul\":10383:10715   */\n    tag_108:\n        /* \"#utility.yul\":10504:10508   */\n      0x00\n        /* \"#utility.yul\":10542:10544   */\n      0x40\n        /* \"#utility.yul\":10531:10540   */\n      dup3\n        /* \"#utility.yul\":10527:10545   */\n      add\n        /* \"#utility.yul\":10519:10545   */\n      swap1\n      pop\n        /* \"#utility.yul\":10555:10626   */\n      tag_246\n        /* \"#utility.yul\":10623:10624   */\n      0x00\n        /* \"#utility.yul\":10612:10621   */\n      dup4\n        /* \"#utility.yul\":10608:10625   */\n      add\n        /* \"#utility.yul\":10599:10605   */\n      dup6\n        /* \"#utility.yul\":10555:10626   */\n      tag_219\n      jump\t// in\n    tag_246:\n        /* \"#utility.yul\":10636:10708   */\n      tag_247\n        /* \"#utility.yul\":10704:10706   */\n      0x20\n        /* \"#utility.yul\":10693:10702   */\n      dup4\n        /* \"#utility.yul\":10689:10707   */\n      add\n        /* \"#utility.yul\":10680:10686   */\n      dup5\n        /* \"#utility.yul\":10636:10708   */\n      tag_219\n      jump\t// in\n    tag_247:\n        /* \"#utility.yul\":10383:10715   */\n      swap4\n      swap3\n      pop\n      pop\n      pop\n      jump\t// out\n        /* \"#utility.yul\":10721:10850   */\n    tag_125:\n        /* \"#utility.yul\":10755:10761   */\n      0x00\n        /* \"#utility.yul\":10782:10802   */\n      tag_249\n      tag_250\n      jump\t// in\n    tag_249:\n        /* \"#utility.yul\":10772:10802   */\n      swap1\n      pop\n        /* \"#utility.yul\":10811:10844   */\n      tag_251\n        /* \"#utility.yul\":10839:10843   */\n      dup3\n        /* \"#utility.yul\":10831:10837   */\n      dup3\n        /* \"#utility.yul\":10811:10844   */\n      tag_252\n      jump\t// in\n    tag_251:\n        /* \"#utility.yul\":10721:10850   */\n      swap2\n      swap1\n      pop\n      jump\t// out\n        /* \"#utility.yul\":10856:10931   */\n    tag_250:\n        /* \"#utility.yul\":10889:10895   */\n      0x00\n        /* \"#utility.yul\":10922:10924   */\n      0x40\n        /* \"#utility.yul\":10916:10925   */\n      mload\n        /* \"#utility.yul\":10906:10925   */\n      swap1\n      pop\n        /* \"#utility.yul\":10856:10931   */\n      swap1\n      jump\t// out\n        /* \"#utility.yul\":10937:11245   */\n    tag_124:\n        /* \"#utility.yul\":10999:11003   */\n      0x00\n        /* \"#utility.yul\":11089:11107   */\n      0xffffffffffffffff\n        /* \"#utility.yul\":11081:11087   */\n      dup3\n        /* \"#utility.yul\":11078:11108   */\n      gt\n        /* \"#utility.yul\":11075:11131   */\n      iszero\n      tag_255\n      jumpi\n        /* \"#utility.yul\":11111:11129   */\n      tag_256\n      tag_257\n      jump\t// in\n    tag_256:\n        /* \"#utility.yul\":11075:11131   */\n    tag_255:\n        /* \"#utility.yul\":11149:11178   */\n      tag_258\n        /* \"#utility.yul\":11171:11177   */\n      dup3\n        /* \"#utility.yul\":11149:11178   */\n      tag_181\n      jump\t// in\n    tag_258:\n        /* \"#utility.yul\":11141:11178   */\n      swap1\n      pop\n        /* \"#utility.yul\":11233:11237   */\n      0x20\n        /* \"#utility.yul\":11227:11231   */\n      dup2\n        /* \"#utility.yul\":11223:11238   */\n      add\n        /* \"#utility.yul\":11215:11238   */\n      swap1\n      pop\n        /* \"#utility.yul\":10937:11245   */\n      swap2\n      swap1\n      pop\n      jump\t// out\n        /* \"#utility.yul\":11251:11350   */\n    tag_175:\n        /* \"#utility.yul\":11303:11309   */\n      0x00\n        /* \"#utility.yul\":11337:11342   */\n      dup2\n        /* \"#utility.yul\":11331:11343   */\n      mload\n        /* \"#utility.yul\":11321:11343   */\n      swap1\n      pop\n        /* \"#utility.yul\":11251:11350   */\n      swap2\n      swap1\n      pop\n      jump\t// out\n        /* \"#utility.yul\":11356:11515   */\n    tag_177:\n        /* \"#utility.yul\":11430:11441   */\n      0x00\n        /* \"#utility.yul\":11464:11470   */\n      dup3\n        /* \"#utility.yul\":11459:11462   */\n      dup3\n        /* \"#utility.yul\":11452:11471   */\n      mstore\n        /* \"#utility.yul\":11504:11508   */\n      0x20\n        /* \"#utility.yul\":11499:11502   */\n      dup3\n        /* \"#utility.yul\":11495:11509   */\n      add\n        /* \"#utility.yul\":11480:11509   */\n      swap1\n      pop\n        /* \"#utility.yul\":11356:11515   */\n      swap3\n      swap2\n      pop\n      pop\n      jump\t// out\n        /* \"#utility.yul\":11521:11690   */\n    tag_186:\n        /* \"#utility.yul\":11605:11616   */\n      0x00\n        /* \"#utility.yul\":11639:11645   */\n      dup3\n        /* \"#utility.yul\":11634:11637   */\n      dup3\n        /* \"#utility.yul\":11627:11646   */\n      mstore\n        /* \"#utility.yul\":11679:11683   */\n      0x20\n        /* \"#utility.yul\":11674:11677   */\n      dup3\n        /* \"#utility.yul\":11670:11684   */\n      add\n        /* \"#utility.yul\":11655:11684   */\n      swap1\n      pop\n        /* \"#utility.yul\":11521:11690   */\n      swap3\n      swap2\n      pop\n      pop\n      jump\t// out\n        /* \"#utility.yul\":11696:12044   */\n    tag_56:\n        /* \"#utility.yul\":11736:11743   */\n      0x00\n        /* \"#utility.yul\":11759:11779   */\n      tag_263\n        /* \"#utility.yul\":11777:11778   */\n      dup3\n        /* \"#utility.yul\":11759:11779   */\n      tag_218\n      jump\t// in\n    tag_263:\n        /* \"#utility.yul\":11754:11779   */\n      swap2\n      pop\n        /* \"#utility.yul\":11793:11813   */\n      tag_264\n        /* \"#utility.yul\":11811:11812   */\n      dup4\n        /* \"#utility.yul\":11793:11813   */\n      tag_218\n      jump\t// in\n    tag_264:\n        /* \"#utility.yul\":11788:11813   */\n      swap3\n      pop\n        /* \"#utility.yul\":11981:11982   */\n      dup2\n        /* \"#utility.yul\":11913:11979   */\n      0xffffffffffffffffffffffffffffffffffffffffffffffffffffffffffffffff\n        /* \"#utility.yul\":11909:11983   */\n      div\n        /* \"#utility.yul\":11906:11907   */\n      dup4\n        /* \"#utility.yul\":11903:11984   */\n      gt\n        /* \"#utility.yul\":11898:11899   */\n      dup3\n        /* \"#utility.yul\":11891:11900   */\n      iszero\n        /* \"#utility.yul\":11884:11901   */\n      iszero\n        /* \"#utility.yul\":11880:11985   */\n      and\n        /* \"#utility.yul\":11877:12008   */\n      iszero\n      tag_265\n      jumpi\n        /* \"#utility.yul\":11988:12006   */\n      tag_266\n      tag_267\n      jump\t// in\n    tag_266:\n        /* \"#utility.yul\":11877:12008   */\n    tag_265:\n        /* \"#utility.yul\":12036:12037   */\n      dup3\n        /* \"#utility.yul\":12033:12034   */\n      dup3\n        /* \"#utility.yul\":12029:12038   */\n      mul\n        /* \"#utility.yul\":12018:12038   */\n      swap1\n      pop\n        /* \"#utility.yul\":11696:12044   */\n      swap3\n      swap2\n      pop\n      pop\n      jump\t// out\n        /* \"#utility.yul\":12050:12146   */\n    tag_168:\n        /* \"#utility.yul\":12087:12094   */\n      0x00\n        /* \"#utility.yul\":12116:12140   */\n      tag_269\n        /* \"#utility.yul\":12134:12139   */\n      dup3\n        /* \"#utility.yul\":12116:12140   */\n      tag_270\n      jump\t// in\n    tag_269:\n        /* \"#utility.yul\":12105:12140   */\n      swap1\n      pop\n        /* \"#utility.yul\":12050:12146   */\n      swap2\n      swap1\n      pop\n      jump\t// out\n        /* \"#utility.yul\":12152:12256   */\n    tag_164:\n        /* \"#utility.yul\":12197:12204   */\n      0x00\n        /* \"#utility.yul\":12226:12250   */\n      tag_272\n        /* \"#utility.yul\":12244:12249   */\n      dup3\n        /* \"#utility.yul\":12226:12250   */\n      tag_270\n      jump\t// in\n    tag_272:\n        /* \"#utility.yul\":12215:12250   */\n      swap1\n      pop\n        /* \"#utility.yul\":12152:12256   */\n      swap2\n      swap1\n      pop\n      jump\t// out\n        /* \"#utility.yul\":12262:12388   */\n    tag_270:\n        /* \"#utility.yul\":12299:12306   */\n      0x00\n        /* \"#utility.yul\":12339:12381   */\n      0xffffffffffffffffffffffffffffffffffffffff\n        /* \"#utility.yul\":12332:12337   */\n      dup3\n        /* \"#utility.yul\":12328:12382   */\n      and\n        /* \"#utility.yul\":12317:12382   */\n      swap1\n      pop\n        /* \"#utility.yul\":12262:12388   */\n      swap2\n      swap1\n      pop\n      jump\t// out\n        /* \"#utility.yul\":12394:12471   */\n    tag_218:\n        /* \"#utility.yul\":12431:12438   */\n      0x00\n        /* \"#utility.yul\":12460:12465   */\n      dup2\n        /* \"#utility.yul\":12449:12465   */\n      swap1\n      pop\n        /* \"#utility.yul\":12394:12471   */\n      swap2\n      swap1\n      pop\n      jump\t// out\n        /* \"#utility.yul\":12477:12631   */\n    tag_130:\n        /* \"#utility.yul\":12561:12567   */\n      dup3\n        /* \"#utility.yul\":12556:12559   */\n      dup2\n        /* \"#utility.yul\":12551:12554   */\n      dup4\n        /* \"#utility.yul\":12538:12568   */\n      calldatacopy\n        /* \"#utility.yul\":12623:12624   */\n      0x00\n        /* \"#utility.yul\":12614:12620   */\n      dup4\n        /* \"#utility.yul\":12609:12612   */\n      dup4\n        /* \"#utility.yul\":12605:12621   */\n      add\n        /* \"#utility.yul\":12598:12625   */\n      mstore\n        /* \"#utility.yul\":12477:12631   */\n      pop\n      pop\n      pop\n      jump\t// out\n        /* \"#utility.yul\":12637:12944   */\n    tag_179:\n        /* \"#utility.yul\":12705:12706   */\n      0x00\n        /* \"#utility.yul\":12715:12828   */\n    tag_277:\n        /* \"#utility.yul\":12729:12735   */\n      dup4\n        /* \"#utility.yul\":12726:12727   */\n      dup2\n        /* \"#utility.yul\":12723:12736   */\n      lt\n        /* \"#utility.yul\":12715:12828   */\n      iszero\n      tag_279\n      jumpi\n        /* \"#utility.yul\":12814:12815   */\n      dup1\n        /* \"#utility.yul\":12809:12812   */\n      dup3\n        /* \"#utility.yul\":12805:12816   */\n      add\n        /* \"#utility.yul\":12799:12817   */\n      mload\n        /* \"#utility.yul\":12795:12796   */\n      dup2\n        /* \"#utility.yul\":12790:12793   */\n      dup5\n        /* \"#utility.yul\":12786:12797   */\n      add\n        /* \"#utility.yul\":12779:12818   */\n      mstore\n        /* \"#utility.yul\":12751:12753   */\n      0x20\n        /* \"#utility.yul\":12748:12749   */\n      dup2\n        /* \"#utility.yul\":12744:12754   */\n      add\n        /* \"#utility.yul\":12739:12754   */\n      swap1\n      pop\n        /* \"#utility.yul\":12715:12828   */\n      jump(tag_277)\n    tag_279:\n        /* \"#utility.yul\":12846:12852   */\n      dup4\n        /* \"#utility.yul\":12843:12844   */\n      dup2\n        /* \"#utility.yul\":12840:12853   */\n      gt\n        /* \"#utility.yul\":12837:12938   */\n      iszero\n      tag_280\n      jumpi\n        /* \"#utility.yul\":12926:12927   */\n      0x00\n        /* \"#utility.yul\":12917:12923   */\n      dup5\n        /* \"#utility.yul\":12912:12915   */\n      dup5\n        /* \"#utility.yul\":12908:12924   */\n      add\n        /* \"#utility.yul\":12901:12928   */\n      mstore\n        /* \"#utility.yul\":12837:12938   */\n    tag_280:\n        /* \"#utility.yul\":12686:12944   */\n      pop\n        /* \"#utility.yul\":12637:12944   */\n      pop\n      pop\n      pop\n      jump\t// out\n        /* \"#utility.yul\":12950:13270   */\n    tag_34:\n        /* \"#utility.yul\":12994:13000   */\n      0x00\n        /* \"#utility.yul\":13031:13032   */\n      0x02\n        /* \"#utility.yul\":13025:13029   */\n      dup3\n        /* \"#utility.yul\":13021:13033   */\n      div\n        /* \"#utility.yul\":13011:13033   */\n      swap1\n      pop\n        /* \"#utility.yul\":13078:13079   */\n      0x01\n        /* \"#utility.yul\":13072:13076   */\n      dup3\n        /* \"#utility.yul\":13068:13080   */\n      and\n        /* \"#utility.yul\":13099:13117   */\n      dup1\n        /* \"#utility.yul\":13089:13170   */\n      tag_282\n      jumpi\n        /* \"#utility.yul\":13155:13159   */\n      0x7f\n        /* \"#utility.yul\":13147:13153   */\n      dup3\n        /* \"#utility.yul\":13143:13160   */\n      and\n        /* \"#utility.yul\":13133:13160   */\n      swap2\n      pop\n        /* \"#utility.yul\":13089:13170   */\n    tag_282:\n        /* \"#utility.yul\":13217:13219   */\n      0x20\n        /* \"#utility.yul\":13209:13215   */\n      dup3\n        /* \"#utility.yul\":13206:13220   */\n      lt\n        /* \"#utility.yul\":13186:13204   */\n      dup2\n        /* \"#utility.yul\":13183:13221   */\n      eq\n        /* \"#utility.yul\":13180:13264   */\n      iszero\n      tag_283\n      jumpi\n        /* \"#utility.yul\":13236:13254   */\n      tag_284\n      tag_285\n      jump\t// in\n    tag_284:\n        /* \"#utility.yul\":13180:13264   */\n    tag_283:\n        /* \"#utility.yul\":13001:13270   */\n      pop\n        /* \"#utility.yul\":12950:13270   */\n      swap2\n      swap1\n      pop\n      jump\t// out\n        /* \"#utility.yul\":13276:13557   */\n    tag_252:\n        /* \"#utility.yul\":13359:13386   */\n      tag_287\n        /* \"#utility.yul\":13381:13385   */\n      dup3\n        /* \"#utility.yul\":13359:13386   */\n      tag_181\n      jump\t// in\n    tag_287:\n        /* \"#utility.yul\":13351:13357   */\n      dup2\n        /* \"#utility.yul\":13347:13387   */\n      add\n        /* \"#utility.yul\":13489:13495   */\n      dup2\n        /* \"#utility.yul\":13477:13487   */\n      dup2\n        /* \"#utility.yul\":13474:13496   */\n      lt\n        /* \"#utility.yul\":13453:13471   */\n      0xffffffffffffffff\n        /* \"#utility.yul\":13441:13451   */\n      dup3\n        /* \"#utility.yul\":13438:13472   */\n      gt\n        /* \"#utility.yul\":13435:13497   */\n      or\n        /* \"#utility.yul\":13432:13520   */\n      iszero\n      tag_288\n      jumpi\n        /* \"#utility.yul\":13500:13518   */\n      tag_289\n      tag_257\n      jump\t// in\n    tag_289:\n        /* \"#utility.yul\":13432:13520   */\n    tag_288:\n        /* \"#utility.yul\":13540:13550   */\n      dup1\n        /* \"#utility.yul\":13536:13538   */\n      0x40\n        /* \"#utility.yul\":13529:13551   */\n      mstore\n        /* \"#utility.yul\":13319:13557   */\n      pop\n        /* \"#utility.yul\":13276:13557   */\n      pop\n      pop\n      jump\t// out\n        /* \"#utility.yul\":13563:13796   */\n    tag_71:\n        /* \"#utility.yul\":13602:13605   */\n      0x00\n        /* \"#utility.yul\":13625:13649   */\n      tag_291\n        /* \"#utility.yul\":13643:13648   */\n      dup3\n        /* \"#utility.yul\":13625:13649   */\n      tag_218\n      jump\t// in\n    tag_291:\n        /* \"#utility.yul\":13616:13649   */\n      swap2\n      pop\n        /* \"#utility.yul\":13671:13737   */\n      0xffffffffffffffffffffffffffffffffffffffffffffffffffffffffffffffff\n        /* \"#utility.yul\":13664:13669   */\n      dup3\n        /* \"#utility.yul\":13661:13738   */\n      eq\n        /* \"#utility.yul\":13658:13761   */\n      iszero\n      tag_292\n      jumpi\n        /* \"#utility.yul\":13741:13759   */\n      tag_293\n      tag_267\n      jump\t// in\n    tag_293:\n        /* \"#utility.yul\":13658:13761   */\n    tag_292:\n        /* \"#utility.yul\":13788:13789   */\n      0x01\n        /* \"#utility.yul\":13781:13786   */\n      dup3\n        /* \"#utility.yul\":13777:13790   */\n      add\n        /* \"#utility.yul\":13770:13790   */\n      swap1\n      pop\n        /* \"#utility.yul\":13563:13796   */\n      swap2\n      swap1\n      pop\n      jump\t// out\n        /* \"#utility.yul\":13802:13982   */\n    tag_267:\n        /* \"#utility.yul\":13850:13927   */\n      0x4e487b7100000000000000000000000000000000000000000000000000000000\n        /* \"#utility.yul\":13847:13848   */\n      0x00\n        /* \"#utility.yul\":13840:13928   */\n      mstore\n        /* \"#utility.yul\":13947:13951   */\n      0x11\n        /* \"#utility.yul\":13944:13945   */\n      0x04\n        /* \"#utility.yul\":13937:13952   */\n      mstore\n        /* \"#utility.yul\":13971:13975   */\n      0x24\n        /* \"#utility.yul\":13968:13969   */\n      0x00\n        /* \"#utility.yul\":13961:13976   */\n      revert\n        /* \"#utility.yul\":13988:14168   */\n    tag_285:\n        /* \"#utility.yul\":14036:14113   */\n      0x4e487b7100000000000000000000000000000000000000000000000000000000\n        /* \"#utility.yul\":14033:14034   */\n      0x00\n        /* \"#utility.yul\":14026:14114   */\n      mstore\n        /* \"#utility.yul\":14133:14137   */\n      0x22\n        /* \"#utility.yul\":14130:14131   */\n      0x04\n        /* \"#utility.yul\":14123:14138   */\n      mstore\n        /* \"#utility.yul\":14157:14161   */\n      0x24\n        /* \"#utility.yul\":14154:14155   */\n      0x00\n        /* \"#utility.yul\":14147:14162   */\n      revert\n        /* \"#utility.yul\":14174:14354   */\n    tag_257:\n        /* \"#utility.yul\":14222:14299   */\n      0x4e487b7100000000000000000000000000000000000000000000000000000000\n        /* \"#utility.yul\":14219:14220   */\n      0x00\n        /* \"#utility.yul\":14212:14300   */\n      mstore\n        /* \"#utility.yul\":14319:14323   */\n      0x41\n        /* \"#utility.yul\":14316:14317   */\n      0x04\n        /* \"#utility.yul\":14309:14324   */\n      mstore\n        /* \"#utility.yul\":14343:14347   */\n      0x24\n        /* \"#utility.yul\":14340:14341   */\n      0x00\n        /* \"#utility.yul\":14333:14348   */\n      revert\n        /* \"#utility.yul\":14360:14477   */\n    tag_135:\n        /* \"#utility.yul\":14469:14470   */\n      0x00\n        /* \"#utility.yul\":14466:14467   */\n      dup1\n        /* \"#utility.yul\":14459:14471   */\n      revert\n        /* \"#utility.yul\":14483:14600   */\n    tag_128:\n        /* \"#utility.yul\":14592:14593   */\n      0x00\n        /* \"#utility.yul\":14589:14590   */\n      dup1\n        /* \"#utility.yul\":14582:14594   */\n      revert\n        /* \"#utility.yul\":14606:14723   */\n    tag_147:\n        /* \"#utility.yul\":14715:14716   */\n      0x00\n        /* \"#utility.yul\":14712:14713   */\n      dup1\n        /* \"#utility.yul\":14705:14717   */\n      revert\n        /* \"#utility.yul\":14729:14846   */\n    tag_144:\n        /* \"#utility.yul\":14838:14839   */\n      0x00\n        /* \"#utility.yul\":14835:14836   */\n      dup1\n        /* \"#utility.yul\":14828:14840   */\n      revert\n        /* \"#utility.yul\":14852:14954   */\n    tag_181:\n        /* \"#utility.yul\":14893:14899   */\n      0x00\n        /* \"#utility.yul\":14944:14946   */\n      0x1f\n        /* \"#utility.yul\":14940:14947   */\n      not\n        /* \"#utility.yul\":14935:14937   */\n      0x1f\n        /* \"#utility.yul\":14928:14933   */\n      dup4\n        /* \"#utility.yul\":14924:14938   */\n      add\n        /* \"#utility.yul\":14920:14948   */\n      and\n        /* \"#utility.yul\":14910:14948   */\n      swap1\n      pop\n        /* \"#utility.yul\":14852:14954   */\n      swap2\n      swap1\n      pop\n      jump\t// out\n        /* \"#utility.yul\":14960:15126   */\n    tag_193:\n        /* \"#utility.yul\":15100:15118   */\n      0x4574686572206e6f7420656e6f75676800000000000000000000000000000000\n        /* \"#utility.yul\":15096:15097   */\n      0x00\n        /* \"#utility.yul\":15088:15094   */\n      dup3\n        /* \"#utility.yul\":15084:15098   */\n      add\n        /* \"#utility.yul\":15077:15119   */\n      mstore\n        /* \"#utility.yul\":14960:15126   */\n      pop\n      jump\t// out\n        /* \"#utility.yul\":15132:15314   */\n    tag_198:\n        /* \"#utility.yul\":15272:15306   */\n      0x546865204472697665722063616e6e6f74207374617274207468652072696465\n        /* \"#utility.yul\":15268:15269   */\n      0x00\n        /* \"#utility.yul\":15260:15266   */\n      dup3\n        /* \"#utility.yul\":15256:15270   */\n      add\n        /* \"#utility.yul\":15249:15307   */\n      mstore\n        /* \"#utility.yul\":15132:15314   */\n      pop\n      jump\t// out\n        /* \"#utility.yul\":15320:15478   */\n    tag_203:\n        /* \"#utility.yul\":15460:15470   */\n      0x4e6f207269646573000000000000000000000000000000000000000000000000\n        /* \"#utility.yul\":15456:15457   */\n      0x00\n        /* \"#utility.yul\":15448:15454   */\n      dup3\n        /* \"#utility.yul\":15444:15458   */\n      add\n        /* \"#utility.yul\":15437:15471   */\n      mstore\n        /* \"#utility.yul\":15320:15478   */\n      pop\n      jump\t// out\n        /* \"#utility.yul\":15484:15706   */\n    tag_208:\n        /* \"#utility.yul\":15624:15658   */\n      0x412052696465722063616e6e6f74206f666665722068696d73656c6620612072\n        /* \"#utility.yul\":15620:15621   */\n      0x00\n        /* \"#utility.yul\":15612:15618   */\n      dup3\n        /* \"#utility.yul\":15608:15622   */\n      add\n        /* \"#utility.yul\":15601:15659   */\n      mstore\n        /* \"#utility.yul\":15693:15698   */\n      0x6964650000000000000000000000000000000000000000000000000000000000\n        /* \"#utility.yul\":15688:15690   */\n      0x20\n        /* \"#utility.yul\":15680:15686   */\n      dup3\n        /* \"#utility.yul\":15676:15691   */\n      add\n        /* \"#utility.yul\":15669:15699   */\n      mstore\n        /* \"#utility.yul\":15484:15706   */\n      pop\n      jump\t// out\n        /* \"#utility.yul\":15712:15834   */\n    tag_140:\n        /* \"#utility.yul\":15785:15809   */\n      tag_307\n        /* \"#utility.yul\":15803:15808   */\n      dup2\n        /* \"#utility.yul\":15785:15809   */\n      tag_218\n      jump\t// in\n    tag_307:\n        /* \"#utility.yul\":15778:15783   */\n      dup2\n        /* \"#utility.yul\":15775:15810   */\n      eq\n        /* \"#utility.yul\":15765:15828   */\n      tag_308\n      jumpi\n        /* \"#utility.yul\":15824:15825   */\n      0x00\n        /* \"#utility.yul\":15821:15822   */\n      dup1\n        /* \"#utility.yul\":15814:15826   */\n      revert\n        /* \"#utility.yul\":15765:15828   */\n    tag_308:\n        /* \"#utility.yul\":15712:15834   */\n      pop\n      jump\t// out\n\n    auxdata: 0xa26469706673582212205b45eb73f82f536ccce9aa77d4180cf3a76619f38cfd84ea1f1de7d6a959ba3f64736f6c63430008070033\n}\n",
				"bytecode": {
					"linkReferences": {},
					"object": "6080604052600060015560006002553480156200001b57600080fd5b506040518060400160405280600c81526020017f4343542054617869204170700000000000000000000000000000000000000000815250600090805190602001906200006992919062000070565b5062000185565b8280546200007e9062000120565b90600052602060002090601f016020900481019282620000a25760008555620000ee565b82601f10620000bd57805160ff1916838001178555620000ee565b82800160010185558215620000ee579182015b82811115620000ed578251825591602001919060010190620000d0565b5b509050620000fd919062000101565b5090565b5b808211156200011c57600081600090555060010162000102565b5090565b600060028204905060018216806200013957607f821691505b6020821081141562000150576200014f62000156565b5b50919050565b7f4e487b7100000000000000000000000000000000000000000000000000000000600052602260045260246000fd5b61169c80620001956000396000f3fe60806040526004361061004a5760003560e01c80635205f1121461004f57806381d12c581461008f57806385a79173146100cf578063ac4bfb03146100f8578063e9c14b1e14610121575b600080fd5b34801561005b57600080fd5b5061007660048036038101906100719190610f06565b61013d565b6040516100869493929190611245565b60405180910390f35b34801561009b57600080fd5b506100b660048036038101906100b19190610f06565b61031b565b6040516100c694939291906111a6565b60405180910390f35b3480156100db57600080fd5b506100f660048036038101906100f19190610f33565b61047b565b005b34801561010457600080fd5b5061011f600480360381019061011a9190610e8e565b610848565b005b61013b60048036038101906101369190610f06565b61099b565b005b6004602052806000526040600020600091509050806000015490806001016040518060800160405290816000820154815260200160018201805461018090611427565b80601f01602080910402602001604051908101604052809291908181526020018280546101ac90611427565b80156101f95780601f106101ce576101008083540402835291602001916101f9565b820191906000526020600020905b8154815290600101906020018083116101dc57829003601f168201915b5050505050815260200160028201805461021290611427565b80601f016020809104026020016040519081016040528092919081815260200182805461023e90611427565b801561028b5780601f106102605761010080835404028352916020019161028b565b820191906000526020600020905b81548152906001019060200180831161026e57829003601f168201915b505050505081526020016003820160009054906101000a900473ffffffffffffffffffffffffffffffffffffffff1673ffffffffffffffffffffffffffffffffffffffff1673ffffffffffffffffffffffffffffffffffffffff1681525050908060050154908060060160009054906101000a900473ffffffffffffffffffffffffffffffffffffffff16905084565b600360205280600052604060002060009150905080600001549080600101805461034490611427565b80601f016020809104026020016040519081016040528092919081815260200182805461037090611427565b80156103bd5780601f10610392576101008083540402835291602001916103bd565b820191906000526020600020905b8154815290600101906020018083116103a057829003601f168201915b5050505050908060020180546103d290611427565b80601f01602080910402602001604051908101604052809291908181526020018280546103fe90611427565b801561044b5780601f106104205761010080835404028352916020019161044b565b820191906000526020600020905b81548152906001019060200180831161042e57829003601f168201915b5050505050908060030160009054906101000a900473ffffffffffffffffffffffffffffffffffffffff16905084565b670de0b6b3a76400008161048f919061133d565b9050600060036000848152602001908152602001600020604051806080016040529081600082015481526020016001820180546104cb90611427565b80601f01602080910402602001604051908101604052809291908181526020018280546104f790611427565b80156105445780601f1061051957610100808354040283529160200191610544565b820191906000526020600020905b81548152906001019060200180831161052757829003601f168201915b5050505050815260200160028201805461055d90611427565b80601f016020809104026020016040519081016040528092919081815260200182805461058990611427565b80156105d65780601f106105ab576101008083540402835291602001916105d6565b820191906000526020600020905b8154815290600101906020018083116105b957829003601f168201915b505050505081526020016003820160009054906101000a900473ffffffffffffffffffffffffffffffffffffffff1673ffffffffffffffffffffffffffffffffffffffff1673ffffffffffffffffffffffffffffffffffffffff168152505090503373ffffffffffffffffffffffffffffffffffffffff16816060015173ffffffffffffffffffffffffffffffffffffffff1614156106aa576040517f08c379a00000000000000000000000000000000000000000000000000000000081526004016106a190611186565b60405180910390fd5b600160008154809291906106bd9061148a565b9190505550604051806080016040528060015481526020018281526020018381526020013373ffffffffffffffffffffffffffffffffffffffff1681525060046000600154815260200190815260200160002060008201518160000155602082015181600101600082015181600001556020820151816001019080519060200190610749929190610d66565b506040820151816002019080519060200190610766929190610d66565b5060608201518160030160006101000a81548173ffffffffffffffffffffffffffffffffffffffff021916908373ffffffffffffffffffffffffffffffffffffffff16021790555050506040820151816005015560608201518160060160006101000a81548173ffffffffffffffffffffffffffffffffffffffff021916908373ffffffffffffffffffffffffffffffffffffffff1602179055509050507f6f47f11e2c6f6c41b723e05652c1ad30d6a7b371a9da9d50e9c18a4416610da960015482843360405161083b94939291906111f9565b60405180910390a1505050565b600082511161085657600080fd5b600081511161086457600080fd5b600260008154809291906108779061148a565b9190505550604051806080016040528060025481526020018381526020018281526020013373ffffffffffffffffffffffffffffffffffffffff168152506003600060025481526020019081526020016000206000820151816000015560208201518160010190805190602001906108f0929190610d66565b50604082015181600201908051906020019061090d929190610d66565b5060608201518160030160006101000a81548173ffffffffffffffffffffffffffffffffffffffff021916908373ffffffffffffffffffffffffffffffffffffffff1602179055509050507fefa4f9cbfa92b58b4d32c3b7b7169882631ee9b0e7bfdfd1e4a6030bdff8b66e60025483833360405161098f94939291906111a6565b60405180910390a15050565b6000600460008381526020019081526020016000206040518060800160405290816000820154815260200160018201604051806080016040529081600082015481526020016001820180546109ef90611427565b80601f0160208091040260200160405190810160405280929190818152602001828054610a1b90611427565b8015610a685780601f10610a3d57610100808354040283529160200191610a68565b820191906000526020600020905b815481529060010190602001808311610a4b57829003601f168201915b50505050508152602001600282018054610a8190611427565b80601f0160208091040260200160405190810160405280929190818152602001828054610aad90611427565b8015610afa5780601f10610acf57610100808354040283529160200191610afa565b820191906000526020600020905b815481529060010190602001808311610add57829003601f168201915b505050505081526020016003820160009054906101000a900473ffffffffffffffffffffffffffffffffffffffff1673ffffffffffffffffffffffffffffffffffffffff1673ffffffffffffffffffffffffffffffffffffffff16815250508152602001600582015481526020016006820160009054906101000a900473ffffffffffffffffffffffffffffffffffffffff1673ffffffffffffffffffffffffffffffffffffffff1673ffffffffffffffffffffffffffffffffffffffff1681525050905060008160600151905060008260000151118015610be25750600154826000015111155b610c21576040517f08c379a0000000000000000000000000000000000000000000000000000000008152600401610c1890611166565b60405180910390fd5b8160400151341015610c68576040517f08c379a0000000000000000000000000000000000000000000000000000000008152600401610c5f90611126565b60405180910390fd5b3373ffffffffffffffffffffffffffffffffffffffff16826060015173ffffffffffffffffffffffffffffffffffffffff161415610cdb576040517f08c379a0000000000000000000000000000000000000000000000000000000008152600401610cd290611146565b60405180910390fd5b8073ffffffffffffffffffffffffffffffffffffffff166108fc349081150290604051600060405180830381858888f19350505050158015610d21573d6000803e3d6000fd5b507f47aedad9a794305876e0950ef3c7a496c4a29976f0f5342b139f322241bc387c6001548360400151604051610d59929190611291565b60405180910390a1505050565b828054610d7290611427565b90600052602060002090601f016020900481019282610d945760008555610ddb565b82601f10610dad57805160ff1916838001178555610ddb565b82800160010185558215610ddb579182015b82811115610dda578251825591602001919060010190610dbf565b5b509050610de89190610dec565b5090565b5b80821115610e05576000816000905550600101610ded565b5090565b6000610e1c610e17846112df565b6112ba565b905082815260208101848484011115610e3857610e37611565565b5b610e438482856113e5565b509392505050565b600082601f830112610e6057610e5f611560565b5b8135610e70848260208601610e09565b91505092915050565b600081359050610e888161164f565b92915050565b60008060408385031215610ea557610ea461156f565b5b600083013567ffffffffffffffff811115610ec357610ec261156a565b5b610ecf85828601610e4b565b925050602083013567ffffffffffffffff811115610ef057610eef61156a565b5b610efc85828601610e4b565b9150509250929050565b600060208284031215610f1c57610f1b61156f565b5b6000610f2a84828501610e79565b91505092915050565b60008060408385031215610f4a57610f4961156f565b5b6000610f5885828601610e79565b9250506020610f6985828601610e79565b9150509250929050565b610f7c816113a9565b82525050565b610f8b81611397565b82525050565b610f9a81611397565b82525050565b6000610fab82611310565b610fb5818561131b565b9350610fc58185602086016113f4565b610fce81611574565b840191505092915050565b6000610fe482611310565b610fee818561132c565b9350610ffe8185602086016113f4565b61100781611574565b840191505092915050565b600061101f60108361132c565b915061102a82611585565b602082019050919050565b600061104260208361132c565b915061104d826115ae565b602082019050919050565b600061106560088361132c565b9150611070826115d7565b602082019050919050565b600061108860238361132c565b915061109382611600565b604082019050919050565b60006080830160008301516110b66000860182611108565b50602083015184820360208601526110ce8282610fa0565b915050604083015184820360408601526110e88282610fa0565b91505060608301516110fd6060860182610f82565b508091505092915050565b611111816113db565b82525050565b611120816113db565b82525050565b6000602082019050818103600083015261113f81611012565b9050919050565b6000602082019050818103600083015261115f81611035565b9050919050565b6000602082019050818103600083015261117f81611058565b9050919050565b6000602082019050818103600083015261119f8161107b565b9050919050565b60006080820190506111bb6000830187611117565b81810360208301526111cd8186610fd9565b905081810360408301526111e18185610fd9565b90506111f06060830184610f91565b95945050505050565b600060808201905061120e6000830187611117565b8181036020830152611220818661109e565b905061122f6040830185611117565b61123c6060830184610f91565b95945050505050565b600060808201905061125a6000830187611117565b818103602083015261126c818661109e565b905061127b6040830185611117565b6112886060830184610f73565b95945050505050565b60006040820190506112a66000830185611117565b6112b36020830184611117565b9392505050565b60006112c46112d5565b90506112d08282611459565b919050565b6000604051905090565b600067ffffffffffffffff8211156112fa576112f9611531565b5b61130382611574565b9050602081019050919050565b600081519050919050565b600082825260208201905092915050565b600082825260208201905092915050565b6000611348826113db565b9150611353836113db565b9250817fffffffffffffffffffffffffffffffffffffffffffffffffffffffffffffffff048311821515161561138c5761138b6114d3565b5b828202905092915050565b60006113a2826113bb565b9050919050565b60006113b4826113bb565b9050919050565b600073ffffffffffffffffffffffffffffffffffffffff82169050919050565b6000819050919050565b82818337600083830152505050565b60005b838110156114125780820151818401526020810190506113f7565b83811115611421576000848401525b50505050565b6000600282049050600182168061143f57607f821691505b6020821081141561145357611452611502565b5b50919050565b61146282611574565b810181811067ffffffffffffffff8211171561148157611480611531565b5b80604052505050565b6000611495826113db565b91507fffffffffffffffffffffffffffffffffffffffffffffffffffffffffffffffff8214156114c8576114c76114d3565b5b600182019050919050565b7f4e487b7100000000000000000000000000000000000000000000000000000000600052601160045260246000fd5b7f4e487b7100000000000000000000000000000000000000000000000000000000600052602260045260246000fd5b7f4e487b7100000000000000000000000000000000000000000000000000000000600052604160045260246000fd5b600080fd5b600080fd5b600080fd5b600080fd5b6000601f19601f8301169050919050565b7f4574686572206e6f7420656e6f75676800000000000000000000000000000000600082015250565b7f546865204472697665722063616e6e6f74207374617274207468652072696465600082015250565b7f4e6f207269646573000000000000000000000000000000000000000000000000600082015250565b7f412052696465722063616e6e6f74206f666665722068696d73656c662061207260008201527f6964650000000000000000000000000000000000000000000000000000000000602082015250565b611658816113db565b811461166357600080fd5b5056fea26469706673582212205b45eb73f82f536ccce9aa77d4180cf3a76619f38cfd84ea1f1de7d6a959ba3f64736f6c63430008070033",
					"opcodes": "PUSH1 0x80 PUSH1 0x40 MSTORE PUSH1 0x0 PUSH1 0x1 SSTORE PUSH1 0x0 PUSH1 0x2 SSTORE CALLVALUE DUP1 ISZERO PUSH3 0x1B JUMPI PUSH1 0x0 DUP1 REVERT JUMPDEST POP PUSH1 0x40 MLOAD DUP1 PUSH1 0x40 ADD PUSH1 0x40 MSTORE DUP1 PUSH1 0xC DUP2 MSTORE PUSH1 0x20 ADD PUSH32 0x4343542054617869204170700000000000000000000000000000000000000000 DUP2 MSTORE POP PUSH1 0x0 SWAP1 DUP1 MLOAD SWAP1 PUSH1 0x20 ADD SWAP1 PUSH3 0x69 SWAP3 SWAP2 SWAP1 PUSH3 0x70 JUMP JUMPDEST POP PUSH3 0x185 JUMP JUMPDEST DUP3 DUP1 SLOAD PUSH3 0x7E SWAP1 PUSH3 0x120 JUMP JUMPDEST SWAP1 PUSH1 0x0 MSTORE PUSH1 0x20 PUSH1 0x0 KECCAK256 SWAP1 PUSH1 0x1F ADD PUSH1 0x20 SWAP1 DIV DUP2 ADD SWAP3 DUP3 PUSH3 0xA2 JUMPI PUSH1 0x0 DUP6 SSTORE PUSH3 0xEE JUMP JUMPDEST DUP3 PUSH1 0x1F LT PUSH3 0xBD JUMPI DUP1 MLOAD PUSH1 0xFF NOT AND DUP4 DUP1 ADD OR DUP6 SSTORE PUSH3 0xEE JUMP JUMPDEST DUP3 DUP1 ADD PUSH1 0x1 ADD DUP6 SSTORE DUP3 ISZERO PUSH3 0xEE JUMPI SWAP2 DUP3 ADD JUMPDEST DUP3 DUP2 GT ISZERO PUSH3 0xED JUMPI DUP3 MLOAD DUP3 SSTORE SWAP2 PUSH1 0x20 ADD SWAP2 SWAP1 PUSH1 0x1 ADD SWAP1 PUSH3 0xD0 JUMP JUMPDEST JUMPDEST POP SWAP1 POP PUSH3 0xFD SWAP2 SWAP1 PUSH3 0x101 JUMP JUMPDEST POP SWAP1 JUMP JUMPDEST JUMPDEST DUP1 DUP3 GT ISZERO PUSH3 0x11C JUMPI PUSH1 0x0 DUP2 PUSH1 0x0 SWAP1 SSTORE POP PUSH1 0x1 ADD PUSH3 0x102 JUMP JUMPDEST POP SWAP1 JUMP JUMPDEST PUSH1 0x0 PUSH1 0x2 DUP3 DIV SWAP1 POP PUSH1 0x1 DUP3 AND DUP1 PUSH3 0x139 JUMPI PUSH1 0x7F DUP3 AND SWAP2 POP JUMPDEST PUSH1 0x20 DUP3 LT DUP2 EQ ISZERO PUSH3 0x150 JUMPI PUSH3 0x14F PUSH3 0x156 JUMP JUMPDEST JUMPDEST POP SWAP2 SWAP1 POP JUMP JUMPDEST PUSH32 0x4E487B7100000000000000000000000000000000000000000000000000000000 PUSH1 0x0 MSTORE PUSH1 0x22 PUSH1 0x4 MSTORE PUSH1 0x24 PUSH1 0x0 REVERT JUMPDEST PUSH2 0x169C DUP1 PUSH3 0x195 PUSH1 0x0 CODECOPY PUSH1 0x0 RETURN INVALID PUSH1 0x80 PUSH1 0x40 MSTORE PUSH1 0x4 CALLDATASIZE LT PUSH2 0x4A JUMPI PUSH1 0x0 CALLDATALOAD PUSH1 0xE0 SHR DUP1 PUSH4 0x5205F112 EQ PUSH2 0x4F JUMPI DUP1 PUSH4 0x81D12C58 EQ PUSH2 0x8F JUMPI DUP1 PUSH4 0x85A79173 EQ PUSH2 0xCF JUMPI DUP1 PUSH4 0xAC4BFB03 EQ PUSH2 0xF8 JUMPI DUP1 PUSH4 0xE9C14B1E EQ PUSH2 0x121 JUMPI JUMPDEST PUSH1 0x0 DUP1 REVERT JUMPDEST CALLVALUE DUP1 ISZERO PUSH2 0x5B JUMPI PUSH1 0x0 DUP1 REVERT JUMPDEST POP PUSH2 0x76 PUSH1 0x4 DUP1 CALLDATASIZE SUB DUP2 ADD SWAP1 PUSH2 0x71 SWAP2 SWAP1 PUSH2 0xF06 JUMP JUMPDEST PUSH2 0x13D JUMP JUMPDEST PUSH1 0x40 MLOAD PUSH2 0x86 SWAP5 SWAP4 SWAP3 SWAP2 SWAP1 PUSH2 0x1245 JUMP JUMPDEST PUSH1 0x40 MLOAD DUP1 SWAP2 SUB SWAP1 RETURN JUMPDEST CALLVALUE DUP1 ISZERO PUSH2 0x9B JUMPI PUSH1 0x0 DUP1 REVERT JUMPDEST POP PUSH2 0xB6 PUSH1 0x4 DUP1 CALLDATASIZE SUB DUP2 ADD SWAP1 PUSH2 0xB1 SWAP2 SWAP1 PUSH2 0xF06 JUMP JUMPDEST PUSH2 0x31B JUMP JUMPDEST PUSH1 0x40 MLOAD PUSH2 0xC6 SWAP5 SWAP4 SWAP3 SWAP2 SWAP1 PUSH2 0x11A6 JUMP JUMPDEST PUSH1 0x40 MLOAD DUP1 SWAP2 SUB SWAP1 RETURN JUMPDEST CALLVALUE DUP1 ISZERO PUSH2 0xDB JUMPI PUSH1 0x0 DUP1 REVERT JUMPDEST POP PUSH2 0xF6 PUSH1 0x4 DUP1 CALLDATASIZE SUB DUP2 ADD SWAP1 PUSH2 0xF1 SWAP2 SWAP1 PUSH2 0xF33 JUMP JUMPDEST PUSH2 0x47B JUMP JUMPDEST STOP JUMPDEST CALLVALUE DUP1 ISZERO PUSH2 0x104 JUMPI PUSH1 0x0 DUP1 REVERT JUMPDEST POP PUSH2 0x11F PUSH1 0x4 DUP1 CALLDATASIZE SUB DUP2 ADD SWAP1 PUSH2 0x11A SWAP2 SWAP1 PUSH2 0xE8E JUMP JUMPDEST PUSH2 0x848 JUMP JUMPDEST STOP JUMPDEST PUSH2 0x13B PUSH1 0x4 DUP1 CALLDATASIZE SUB DUP2 ADD SWAP1 PUSH2 0x136 SWAP2 SWAP1 PUSH2 0xF06 JUMP JUMPDEST PUSH2 0x99B JUMP JUMPDEST STOP JUMPDEST PUSH1 0x4 PUSH1 0x20 MSTORE DUP1 PUSH1 0x0 MSTORE PUSH1 0x40 PUSH1 0x0 KECCAK256 PUSH1 0x0 SWAP2 POP SWAP1 POP DUP1 PUSH1 0x0 ADD SLOAD SWAP1 DUP1 PUSH1 0x1 ADD PUSH1 0x40 MLOAD DUP1 PUSH1 0x80 ADD PUSH1 0x40 MSTORE SWAP1 DUP2 PUSH1 0x0 DUP3 ADD SLOAD DUP2 MSTORE PUSH1 0x20 ADD PUSH1 0x1 DUP3 ADD DUP1 SLOAD PUSH2 0x180 SWAP1 PUSH2 0x1427 JUMP JUMPDEST DUP1 PUSH1 0x1F ADD PUSH1 0x20 DUP1 SWAP2 DIV MUL PUSH1 0x20 ADD PUSH1 0x40 MLOAD SWAP1 DUP2 ADD PUSH1 0x40 MSTORE DUP1 SWAP3 SWAP2 SWAP1 DUP2 DUP2 MSTORE PUSH1 0x20 ADD DUP3 DUP1 SLOAD PUSH2 0x1AC SWAP1 PUSH2 0x1427 JUMP JUMPDEST DUP1 ISZERO PUSH2 0x1F9 JUMPI DUP1 PUSH1 0x1F LT PUSH2 0x1CE JUMPI PUSH2 0x100 DUP1 DUP4 SLOAD DIV MUL DUP4 MSTORE SWAP2 PUSH1 0x20 ADD SWAP2 PUSH2 0x1F9 JUMP JUMPDEST DUP3 ADD SWAP2 SWAP1 PUSH1 0x0 MSTORE PUSH1 0x20 PUSH1 0x0 KECCAK256 SWAP1 JUMPDEST DUP2 SLOAD DUP2 MSTORE SWAP1 PUSH1 0x1 ADD SWAP1 PUSH1 0x20 ADD DUP1 DUP4 GT PUSH2 0x1DC JUMPI DUP3 SWAP1 SUB PUSH1 0x1F AND DUP3 ADD SWAP2 JUMPDEST POP POP POP POP POP DUP2 MSTORE PUSH1 0x20 ADD PUSH1 0x2 DUP3 ADD DUP1 SLOAD PUSH2 0x212 SWAP1 PUSH2 0x1427 JUMP JUMPDEST DUP1 PUSH1 0x1F ADD PUSH1 0x20 DUP1 SWAP2 DIV MUL PUSH1 0x20 ADD PUSH1 0x40 MLOAD SWAP1 DUP2 ADD PUSH1 0x40 MSTORE DUP1 SWAP3 SWAP2 SWAP1 DUP2 DUP2 MSTORE PUSH1 0x20 ADD DUP3 DUP1 SLOAD PUSH2 0x23E SWAP1 PUSH2 0x1427 JUMP JUMPDEST DUP1 ISZERO PUSH2 0x28B JUMPI DUP1 PUSH1 0x1F LT PUSH2 0x260 JUMPI PUSH2 0x100 DUP1 DUP4 SLOAD DIV MUL DUP4 MSTORE SWAP2 PUSH1 0x20 ADD SWAP2 PUSH2 0x28B JUMP JUMPDEST DUP3 ADD SWAP2 SWAP1 PUSH1 0x0 MSTORE PUSH1 0x20 PUSH1 0x0 KECCAK256 SWAP1 JUMPDEST DUP2 SLOAD DUP2 MSTORE SWAP1 PUSH1 0x1 ADD SWAP1 PUSH1 0x20 ADD DUP1 DUP4 GT PUSH2 0x26E JUMPI DUP3 SWAP1 SUB PUSH1 0x1F AND DUP3 ADD SWAP2 JUMPDEST POP POP POP POP POP DUP2 MSTORE PUSH1 0x20 ADD PUSH1 0x3 DUP3 ADD PUSH1 0x0 SWAP1 SLOAD SWAP1 PUSH2 0x100 EXP SWAP1 DIV PUSH20 0xFFFFFFFFFFFFFFFFFFFFFFFFFFFFFFFFFFFFFFFF AND PUSH20 0xFFFFFFFFFFFFFFFFFFFFFFFFFFFFFFFFFFFFFFFF AND PUSH20 0xFFFFFFFFFFFFFFFFFFFFFFFFFFFFFFFFFFFFFFFF AND DUP2 MSTORE POP POP SWAP1 DUP1 PUSH1 0x5 ADD SLOAD SWAP1 DUP1 PUSH1 0x6 ADD PUSH1 0x0 SWAP1 SLOAD SWAP1 PUSH2 0x100 EXP SWAP1 DIV PUSH20 0xFFFFFFFFFFFFFFFFFFFFFFFFFFFFFFFFFFFFFFFF AND SWAP1 POP DUP5 JUMP JUMPDEST PUSH1 0x3 PUSH1 0x20 MSTORE DUP1 PUSH1 0x0 MSTORE PUSH1 0x40 PUSH1 0x0 KECCAK256 PUSH1 0x0 SWAP2 POP SWAP1 POP DUP1 PUSH1 0x0 ADD SLOAD SWAP1 DUP1 PUSH1 0x1 ADD DUP1 SLOAD PUSH2 0x344 SWAP1 PUSH2 0x1427 JUMP JUMPDEST DUP1 PUSH1 0x1F ADD PUSH1 0x20 DUP1 SWAP2 DIV MUL PUSH1 0x20 ADD PUSH1 0x40 MLOAD SWAP1 DUP2 ADD PUSH1 0x40 MSTORE DUP1 SWAP3 SWAP2 SWAP1 DUP2 DUP2 MSTORE PUSH1 0x20 ADD DUP3 DUP1 SLOAD PUSH2 0x370 SWAP1 PUSH2 0x1427 JUMP JUMPDEST DUP1 ISZERO PUSH2 0x3BD JUMPI DUP1 PUSH1 0x1F LT PUSH2 0x392 JUMPI PUSH2 0x100 DUP1 DUP4 SLOAD DIV MUL DUP4 MSTORE SWAP2 PUSH1 0x20 ADD SWAP2 PUSH2 0x3BD JUMP JUMPDEST DUP3 ADD SWAP2 SWAP1 PUSH1 0x0 MSTORE PUSH1 0x20 PUSH1 0x0 KECCAK256 SWAP1 JUMPDEST DUP2 SLOAD DUP2 MSTORE SWAP1 PUSH1 0x1 ADD SWAP1 PUSH1 0x20 ADD DUP1 DUP4 GT PUSH2 0x3A0 JUMPI DUP3 SWAP1 SUB PUSH1 0x1F AND DUP3 ADD SWAP2 JUMPDEST POP POP POP POP POP SWAP1 DUP1 PUSH1 0x2 ADD DUP1 SLOAD PUSH2 0x3D2 SWAP1 PUSH2 0x1427 JUMP JUMPDEST DUP1 PUSH1 0x1F ADD PUSH1 0x20 DUP1 SWAP2 DIV MUL PUSH1 0x20 ADD PUSH1 0x40 MLOAD SWAP1 DUP2 ADD PUSH1 0x40 MSTORE DUP1 SWAP3 SWAP2 SWAP1 DUP2 DUP2 MSTORE PUSH1 0x20 ADD DUP3 DUP1 SLOAD PUSH2 0x3FE SWAP1 PUSH2 0x1427 JUMP JUMPDEST DUP1 ISZERO PUSH2 0x44B JUMPI DUP1 PUSH1 0x1F LT PUSH2 0x420 JUMPI PUSH2 0x100 DUP1 DUP4 SLOAD DIV MUL DUP4 MSTORE SWAP2 PUSH1 0x20 ADD SWAP2 PUSH2 0x44B JUMP JUMPDEST DUP3 ADD SWAP2 SWAP1 PUSH1 0x0 MSTORE PUSH1 0x20 PUSH1 0x0 KECCAK256 SWAP1 JUMPDEST DUP2 SLOAD DUP2 MSTORE SWAP1 PUSH1 0x1 ADD SWAP1 PUSH1 0x20 ADD DUP1 DUP4 GT PUSH2 0x42E JUMPI DUP3 SWAP1 SUB PUSH1 0x1F AND DUP3 ADD SWAP2 JUMPDEST POP POP POP POP POP SWAP1 DUP1 PUSH1 0x3 ADD PUSH1 0x0 SWAP1 SLOAD SWAP1 PUSH2 0x100 EXP SWAP1 DIV PUSH20 0xFFFFFFFFFFFFFFFFFFFFFFFFFFFFFFFFFFFFFFFF AND SWAP1 POP DUP5 JUMP JUMPDEST PUSH8 0xDE0B6B3A7640000 DUP2 PUSH2 0x48F SWAP2 SWAP1 PUSH2 0x133D JUMP JUMPDEST SWAP1 POP PUSH1 0x0 PUSH1 0x3 PUSH1 0x0 DUP5 DUP2 MSTORE PUSH1 0x20 ADD SWAP1 DUP2 MSTORE PUSH1 0x20 ADD PUSH1 0x0 KECCAK256 PUSH1 0x40 MLOAD DUP1 PUSH1 0x80 ADD PUSH1 0x40 MSTORE SWAP1 DUP2 PUSH1 0x0 DUP3 ADD SLOAD DUP2 MSTORE PUSH1 0x20 ADD PUSH1 0x1 DUP3 ADD DUP1 SLOAD PUSH2 0x4CB SWAP1 PUSH2 0x1427 JUMP JUMPDEST DUP1 PUSH1 0x1F ADD PUSH1 0x20 DUP1 SWAP2 DIV MUL PUSH1 0x20 ADD PUSH1 0x40 MLOAD SWAP1 DUP2 ADD PUSH1 0x40 MSTORE DUP1 SWAP3 SWAP2 SWAP1 DUP2 DUP2 MSTORE PUSH1 0x20 ADD DUP3 DUP1 SLOAD PUSH2 0x4F7 SWAP1 PUSH2 0x1427 JUMP JUMPDEST DUP1 ISZERO PUSH2 0x544 JUMPI DUP1 PUSH1 0x1F LT PUSH2 0x519 JUMPI PUSH2 0x100 DUP1 DUP4 SLOAD DIV MUL DUP4 MSTORE SWAP2 PUSH1 0x20 ADD SWAP2 PUSH2 0x544 JUMP JUMPDEST DUP3 ADD SWAP2 SWAP1 PUSH1 0x0 MSTORE PUSH1 0x20 PUSH1 0x0 KECCAK256 SWAP1 JUMPDEST DUP2 SLOAD DUP2 MSTORE SWAP1 PUSH1 0x1 ADD SWAP1 PUSH1 0x20 ADD DUP1 DUP4 GT PUSH2 0x527 JUMPI DUP3 SWAP1 SUB PUSH1 0x1F AND DUP3 ADD SWAP2 JUMPDEST POP POP POP POP POP DUP2 MSTORE PUSH1 0x20 ADD PUSH1 0x2 DUP3 ADD DUP1 SLOAD PUSH2 0x55D SWAP1 PUSH2 0x1427 JUMP JUMPDEST DUP1 PUSH1 0x1F ADD PUSH1 0x20 DUP1 SWAP2 DIV MUL PUSH1 0x20 ADD PUSH1 0x40 MLOAD SWAP1 DUP2 ADD PUSH1 0x40 MSTORE DUP1 SWAP3 SWAP2 SWAP1 DUP2 DUP2 MSTORE PUSH1 0x20 ADD DUP3 DUP1 SLOAD PUSH2 0x589 SWAP1 PUSH2 0x1427 JUMP JUMPDEST DUP1 ISZERO PUSH2 0x5D6 JUMPI DUP1 PUSH1 0x1F LT PUSH2 0x5AB JUMPI PUSH2 0x100 DUP1 DUP4 SLOAD DIV MUL DUP4 MSTORE SWAP2 PUSH1 0x20 ADD SWAP2 PUSH2 0x5D6 JUMP JUMPDEST DUP3 ADD SWAP2 SWAP1 PUSH1 0x0 MSTORE PUSH1 0x20 PUSH1 0x0 KECCAK256 SWAP1 JUMPDEST DUP2 SLOAD DUP2 MSTORE SWAP1 PUSH1 0x1 ADD SWAP1 PUSH1 0x20 ADD DUP1 DUP4 GT PUSH2 0x5B9 JUMPI DUP3 SWAP1 SUB PUSH1 0x1F AND DUP3 ADD SWAP2 JUMPDEST POP POP POP POP POP DUP2 MSTORE PUSH1 0x20 ADD PUSH1 0x3 DUP3 ADD PUSH1 0x0 SWAP1 SLOAD SWAP1 PUSH2 0x100 EXP SWAP1 DIV PUSH20 0xFFFFFFFFFFFFFFFFFFFFFFFFFFFFFFFFFFFFFFFF AND PUSH20 0xFFFFFFFFFFFFFFFFFFFFFFFFFFFFFFFFFFFFFFFF AND PUSH20 0xFFFFFFFFFFFFFFFFFFFFFFFFFFFFFFFFFFFFFFFF AND DUP2 MSTORE POP POP SWAP1 POP CALLER PUSH20 0xFFFFFFFFFFFFFFFFFFFFFFFFFFFFFFFFFFFFFFFF AND DUP2 PUSH1 0x60 ADD MLOAD PUSH20 0xFFFFFFFFFFFFFFFFFFFFFFFFFFFFFFFFFFFFFFFF AND EQ ISZERO PUSH2 0x6AA JUMPI PUSH1 0x40 MLOAD PUSH32 0x8C379A000000000000000000000000000000000000000000000000000000000 DUP2 MSTORE PUSH1 0x4 ADD PUSH2 0x6A1 SWAP1 PUSH2 0x1186 JUMP JUMPDEST PUSH1 0x40 MLOAD DUP1 SWAP2 SUB SWAP1 REVERT JUMPDEST PUSH1 0x1 PUSH1 0x0 DUP2 SLOAD DUP1 SWAP3 SWAP2 SWAP1 PUSH2 0x6BD SWAP1 PUSH2 0x148A JUMP JUMPDEST SWAP2 SWAP1 POP SSTORE POP PUSH1 0x40 MLOAD DUP1 PUSH1 0x80 ADD PUSH1 0x40 MSTORE DUP1 PUSH1 0x1 SLOAD DUP2 MSTORE PUSH1 0x20 ADD DUP3 DUP2 MSTORE PUSH1 0x20 ADD DUP4 DUP2 MSTORE PUSH1 0x20 ADD CALLER PUSH20 0xFFFFFFFFFFFFFFFFFFFFFFFFFFFFFFFFFFFFFFFF AND DUP2 MSTORE POP PUSH1 0x4 PUSH1 0x0 PUSH1 0x1 SLOAD DUP2 MSTORE PUSH1 0x20 ADD SWAP1 DUP2 MSTORE PUSH1 0x20 ADD PUSH1 0x0 KECCAK256 PUSH1 0x0 DUP3 ADD MLOAD DUP2 PUSH1 0x0 ADD SSTORE PUSH1 0x20 DUP3 ADD MLOAD DUP2 PUSH1 0x1 ADD PUSH1 0x0 DUP3 ADD MLOAD DUP2 PUSH1 0x0 ADD SSTORE PUSH1 0x20 DUP3 ADD MLOAD DUP2 PUSH1 0x1 ADD SWAP1 DUP1 MLOAD SWAP1 PUSH1 0x20 ADD SWAP1 PUSH2 0x749 SWAP3 SWAP2 SWAP1 PUSH2 0xD66 JUMP JUMPDEST POP PUSH1 0x40 DUP3 ADD MLOAD DUP2 PUSH1 0x2 ADD SWAP1 DUP1 MLOAD SWAP1 PUSH1 0x20 ADD SWAP1 PUSH2 0x766 SWAP3 SWAP2 SWAP1 PUSH2 0xD66 JUMP JUMPDEST POP PUSH1 0x60 DUP3 ADD MLOAD DUP2 PUSH1 0x3 ADD PUSH1 0x0 PUSH2 0x100 EXP DUP2 SLOAD DUP2 PUSH20 0xFFFFFFFFFFFFFFFFFFFFFFFFFFFFFFFFFFFFFFFF MUL NOT AND SWAP1 DUP4 PUSH20 0xFFFFFFFFFFFFFFFFFFFFFFFFFFFFFFFFFFFFFFFF AND MUL OR SWAP1 SSTORE POP POP POP PUSH1 0x40 DUP3 ADD MLOAD DUP2 PUSH1 0x5 ADD SSTORE PUSH1 0x60 DUP3 ADD MLOAD DUP2 PUSH1 0x6 ADD PUSH1 0x0 PUSH2 0x100 EXP DUP2 SLOAD DUP2 PUSH20 0xFFFFFFFFFFFFFFFFFFFFFFFFFFFFFFFFFFFFFFFF MUL NOT AND SWAP1 DUP4 PUSH20 0xFFFFFFFFFFFFFFFFFFFFFFFFFFFFFFFFFFFFFFFF AND MUL OR SWAP1 SSTORE POP SWAP1 POP POP PUSH32 0x6F47F11E2C6F6C41B723E05652C1AD30D6A7B371A9DA9D50E9C18A4416610DA9 PUSH1 0x1 SLOAD DUP3 DUP5 CALLER PUSH1 0x40 MLOAD PUSH2 0x83B SWAP5 SWAP4 SWAP3 SWAP2 SWAP1 PUSH2 0x11F9 JUMP JUMPDEST PUSH1 0x40 MLOAD DUP1 SWAP2 SUB SWAP1 LOG1 POP POP POP JUMP JUMPDEST PUSH1 0x0 DUP3 MLOAD GT PUSH2 0x856 JUMPI PUSH1 0x0 DUP1 REVERT JUMPDEST PUSH1 0x0 DUP2 MLOAD GT PUSH2 0x864 JUMPI PUSH1 0x0 DUP1 REVERT JUMPDEST PUSH1 0x2 PUSH1 0x0 DUP2 SLOAD DUP1 SWAP3 SWAP2 SWAP1 PUSH2 0x877 SWAP1 PUSH2 0x148A JUMP JUMPDEST SWAP2 SWAP1 POP SSTORE POP PUSH1 0x40 MLOAD DUP1 PUSH1 0x80 ADD PUSH1 0x40 MSTORE DUP1 PUSH1 0x2 SLOAD DUP2 MSTORE PUSH1 0x20 ADD DUP4 DUP2 MSTORE PUSH1 0x20 ADD DUP3 DUP2 MSTORE PUSH1 0x20 ADD CALLER PUSH20 0xFFFFFFFFFFFFFFFFFFFFFFFFFFFFFFFFFFFFFFFF AND DUP2 MSTORE POP PUSH1 0x3 PUSH1 0x0 PUSH1 0x2 SLOAD DUP2 MSTORE PUSH1 0x20 ADD SWAP1 DUP2 MSTORE PUSH1 0x20 ADD PUSH1 0x0 KECCAK256 PUSH1 0x0 DUP3 ADD MLOAD DUP2 PUSH1 0x0 ADD SSTORE PUSH1 0x20 DUP3 ADD MLOAD DUP2 PUSH1 0x1 ADD SWAP1 DUP1 MLOAD SWAP1 PUSH1 0x20 ADD SWAP1 PUSH2 0x8F0 SWAP3 SWAP2 SWAP1 PUSH2 0xD66 JUMP JUMPDEST POP PUSH1 0x40 DUP3 ADD MLOAD DUP2 PUSH1 0x2 ADD SWAP1 DUP1 MLOAD SWAP1 PUSH1 0x20 ADD SWAP1 PUSH2 0x90D SWAP3 SWAP2 SWAP1 PUSH2 0xD66 JUMP JUMPDEST POP PUSH1 0x60 DUP3 ADD MLOAD DUP2 PUSH1 0x3 ADD PUSH1 0x0 PUSH2 0x100 EXP DUP2 SLOAD DUP2 PUSH20 0xFFFFFFFFFFFFFFFFFFFFFFFFFFFFFFFFFFFFFFFF MUL NOT AND SWAP1 DUP4 PUSH20 0xFFFFFFFFFFFFFFFFFFFFFFFFFFFFFFFFFFFFFFFF AND MUL OR SWAP1 SSTORE POP SWAP1 POP POP PUSH32 0xEFA4F9CBFA92B58B4D32C3B7B7169882631EE9B0E7BFDFD1E4A6030BDFF8B66E PUSH1 0x2 SLOAD DUP4 DUP4 CALLER PUSH1 0x40 MLOAD PUSH2 0x98F SWAP5 SWAP4 SWAP3 SWAP2 SWAP1 PUSH2 0x11A6 JUMP JUMPDEST PUSH1 0x40 MLOAD DUP1 SWAP2 SUB SWAP1 LOG1 POP POP JUMP JUMPDEST PUSH1 0x0 PUSH1 0x4 PUSH1 0x0 DUP4 DUP2 MSTORE PUSH1 0x20 ADD SWAP1 DUP2 MSTORE PUSH1 0x20 ADD PUSH1 0x0 KECCAK256 PUSH1 0x40 MLOAD DUP1 PUSH1 0x80 ADD PUSH1 0x40 MSTORE SWAP1 DUP2 PUSH1 0x0 DUP3 ADD SLOAD DUP2 MSTORE PUSH1 0x20 ADD PUSH1 0x1 DUP3 ADD PUSH1 0x40 MLOAD DUP1 PUSH1 0x80 ADD PUSH1 0x40 MSTORE SWAP1 DUP2 PUSH1 0x0 DUP3 ADD SLOAD DUP2 MSTORE PUSH1 0x20 ADD PUSH1 0x1 DUP3 ADD DUP1 SLOAD PUSH2 0x9EF SWAP1 PUSH2 0x1427 JUMP JUMPDEST DUP1 PUSH1 0x1F ADD PUSH1 0x20 DUP1 SWAP2 DIV MUL PUSH1 0x20 ADD PUSH1 0x40 MLOAD SWAP1 DUP2 ADD PUSH1 0x40 MSTORE DUP1 SWAP3 SWAP2 SWAP1 DUP2 DUP2 MSTORE PUSH1 0x20 ADD DUP3 DUP1 SLOAD PUSH2 0xA1B SWAP1 PUSH2 0x1427 JUMP JUMPDEST DUP1 ISZERO PUSH2 0xA68 JUMPI DUP1 PUSH1 0x1F LT PUSH2 0xA3D JUMPI PUSH2 0x100 DUP1 DUP4 SLOAD DIV MUL DUP4 MSTORE SWAP2 PUSH1 0x20 ADD SWAP2 PUSH2 0xA68 JUMP JUMPDEST DUP3 ADD SWAP2 SWAP1 PUSH1 0x0 MSTORE PUSH1 0x20 PUSH1 0x0 KECCAK256 SWAP1 JUMPDEST DUP2 SLOAD DUP2 MSTORE SWAP1 PUSH1 0x1 ADD SWAP1 PUSH1 0x20 ADD DUP1 DUP4 GT PUSH2 0xA4B JUMPI DUP3 SWAP1 SUB PUSH1 0x1F AND DUP3 ADD SWAP2 JUMPDEST POP POP POP POP POP DUP2 MSTORE PUSH1 0x20 ADD PUSH1 0x2 DUP3 ADD DUP1 SLOAD PUSH2 0xA81 SWAP1 PUSH2 0x1427 JUMP JUMPDEST DUP1 PUSH1 0x1F ADD PUSH1 0x20 DUP1 SWAP2 DIV MUL PUSH1 0x20 ADD PUSH1 0x40 MLOAD SWAP1 DUP2 ADD PUSH1 0x40 MSTORE DUP1 SWAP3 SWAP2 SWAP1 DUP2 DUP2 MSTORE PUSH1 0x20 ADD DUP3 DUP1 SLOAD PUSH2 0xAAD SWAP1 PUSH2 0x1427 JUMP JUMPDEST DUP1 ISZERO PUSH2 0xAFA JUMPI DUP1 PUSH1 0x1F LT PUSH2 0xACF JUMPI PUSH2 0x100 DUP1 DUP4 SLOAD DIV MUL DUP4 MSTORE SWAP2 PUSH1 0x20 ADD SWAP2 PUSH2 0xAFA JUMP JUMPDEST DUP3 ADD SWAP2 SWAP1 PUSH1 0x0 MSTORE PUSH1 0x20 PUSH1 0x0 KECCAK256 SWAP1 JUMPDEST DUP2 SLOAD DUP2 MSTORE SWAP1 PUSH1 0x1 ADD SWAP1 PUSH1 0x20 ADD DUP1 DUP4 GT PUSH2 0xADD JUMPI DUP3 SWAP1 SUB PUSH1 0x1F AND DUP3 ADD SWAP2 JUMPDEST POP POP POP POP POP DUP2 MSTORE PUSH1 0x20 ADD PUSH1 0x3 DUP3 ADD PUSH1 0x0 SWAP1 SLOAD SWAP1 PUSH2 0x100 EXP SWAP1 DIV PUSH20 0xFFFFFFFFFFFFFFFFFFFFFFFFFFFFFFFFFFFFFFFF AND PUSH20 0xFFFFFFFFFFFFFFFFFFFFFFFFFFFFFFFFFFFFFFFF AND PUSH20 0xFFFFFFFFFFFFFFFFFFFFFFFFFFFFFFFFFFFFFFFF AND DUP2 MSTORE POP POP DUP2 MSTORE PUSH1 0x20 ADD PUSH1 0x5 DUP3 ADD SLOAD DUP2 MSTORE PUSH1 0x20 ADD PUSH1 0x6 DUP3 ADD PUSH1 0x0 SWAP1 SLOAD SWAP1 PUSH2 0x100 EXP SWAP1 DIV PUSH20 0xFFFFFFFFFFFFFFFFFFFFFFFFFFFFFFFFFFFFFFFF AND PUSH20 0xFFFFFFFFFFFFFFFFFFFFFFFFFFFFFFFFFFFFFFFF AND PUSH20 0xFFFFFFFFFFFFFFFFFFFFFFFFFFFFFFFFFFFFFFFF AND DUP2 MSTORE POP POP SWAP1 POP PUSH1 0x0 DUP2 PUSH1 0x60 ADD MLOAD SWAP1 POP PUSH1 0x0 DUP3 PUSH1 0x0 ADD MLOAD GT DUP1 ISZERO PUSH2 0xBE2 JUMPI POP PUSH1 0x1 SLOAD DUP3 PUSH1 0x0 ADD MLOAD GT ISZERO JUMPDEST PUSH2 0xC21 JUMPI PUSH1 0x40 MLOAD PUSH32 0x8C379A000000000000000000000000000000000000000000000000000000000 DUP2 MSTORE PUSH1 0x4 ADD PUSH2 0xC18 SWAP1 PUSH2 0x1166 JUMP JUMPDEST PUSH1 0x40 MLOAD DUP1 SWAP2 SUB SWAP1 REVERT JUMPDEST DUP2 PUSH1 0x40 ADD MLOAD CALLVALUE LT ISZERO PUSH2 0xC68 JUMPI PUSH1 0x40 MLOAD PUSH32 0x8C379A000000000000000000000000000000000000000000000000000000000 DUP2 MSTORE PUSH1 0x4 ADD PUSH2 0xC5F SWAP1 PUSH2 0x1126 JUMP JUMPDEST PUSH1 0x40 MLOAD DUP1 SWAP2 SUB SWAP1 REVERT JUMPDEST CALLER PUSH20 0xFFFFFFFFFFFFFFFFFFFFFFFFFFFFFFFFFFFFFFFF AND DUP3 PUSH1 0x60 ADD MLOAD PUSH20 0xFFFFFFFFFFFFFFFFFFFFFFFFFFFFFFFFFFFFFFFF AND EQ ISZERO PUSH2 0xCDB JUMPI PUSH1 0x40 MLOAD PUSH32 0x8C379A000000000000000000000000000000000000000000000000000000000 DUP2 MSTORE PUSH1 0x4 ADD PUSH2 0xCD2 SWAP1 PUSH2 0x1146 JUMP JUMPDEST PUSH1 0x40 MLOAD DUP1 SWAP2 SUB SWAP1 REVERT JUMPDEST DUP1 PUSH20 0xFFFFFFFFFFFFFFFFFFFFFFFFFFFFFFFFFFFFFFFF AND PUSH2 0x8FC CALLVALUE SWAP1 DUP2 ISZERO MUL SWAP1 PUSH1 0x40 MLOAD PUSH1 0x0 PUSH1 0x40 MLOAD DUP1 DUP4 SUB DUP2 DUP6 DUP9 DUP9 CALL SWAP4 POP POP POP POP ISZERO DUP1 ISZERO PUSH2 0xD21 JUMPI RETURNDATASIZE PUSH1 0x0 DUP1 RETURNDATACOPY RETURNDATASIZE PUSH1 0x0 REVERT JUMPDEST POP PUSH32 0x47AEDAD9A794305876E0950EF3C7A496C4A29976F0F5342B139F322241BC387C PUSH1 0x1 SLOAD DUP4 PUSH1 0x40 ADD MLOAD PUSH1 0x40 MLOAD PUSH2 0xD59 SWAP3 SWAP2 SWAP1 PUSH2 0x1291 JUMP JUMPDEST PUSH1 0x40 MLOAD DUP1 SWAP2 SUB SWAP1 LOG1 POP POP POP JUMP JUMPDEST DUP3 DUP1 SLOAD PUSH2 0xD72 SWAP1 PUSH2 0x1427 JUMP JUMPDEST SWAP1 PUSH1 0x0 MSTORE PUSH1 0x20 PUSH1 0x0 KECCAK256 SWAP1 PUSH1 0x1F ADD PUSH1 0x20 SWAP1 DIV DUP2 ADD SWAP3 DUP3 PUSH2 0xD94 JUMPI PUSH1 0x0 DUP6 SSTORE PUSH2 0xDDB JUMP JUMPDEST DUP3 PUSH1 0x1F LT PUSH2 0xDAD JUMPI DUP1 MLOAD PUSH1 0xFF NOT AND DUP4 DUP1 ADD OR DUP6 SSTORE PUSH2 0xDDB JUMP JUMPDEST DUP3 DUP1 ADD PUSH1 0x1 ADD DUP6 SSTORE DUP3 ISZERO PUSH2 0xDDB JUMPI SWAP2 DUP3 ADD JUMPDEST DUP3 DUP2 GT ISZERO PUSH2 0xDDA JUMPI DUP3 MLOAD DUP3 SSTORE SWAP2 PUSH1 0x20 ADD SWAP2 SWAP1 PUSH1 0x1 ADD SWAP1 PUSH2 0xDBF JUMP JUMPDEST JUMPDEST POP SWAP1 POP PUSH2 0xDE8 SWAP2 SWAP1 PUSH2 0xDEC JUMP JUMPDEST POP SWAP1 JUMP JUMPDEST JUMPDEST DUP1 DUP3 GT ISZERO PUSH2 0xE05 JUMPI PUSH1 0x0 DUP2 PUSH1 0x0 SWAP1 SSTORE POP PUSH1 0x1 ADD PUSH2 0xDED JUMP JUMPDEST POP SWAP1 JUMP JUMPDEST PUSH1 0x0 PUSH2 0xE1C PUSH2 0xE17 DUP5 PUSH2 0x12DF JUMP JUMPDEST PUSH2 0x12BA JUMP JUMPDEST SWAP1 POP DUP3 DUP2 MSTORE PUSH1 0x20 DUP2 ADD DUP5 DUP5 DUP5 ADD GT ISZERO PUSH2 0xE38 JUMPI PUSH2 0xE37 PUSH2 0x1565 JUMP JUMPDEST JUMPDEST PUSH2 0xE43 DUP5 DUP3 DUP6 PUSH2 0x13E5 JUMP JUMPDEST POP SWAP4 SWAP3 POP POP POP JUMP JUMPDEST PUSH1 0x0 DUP3 PUSH1 0x1F DUP4 ADD SLT PUSH2 0xE60 JUMPI PUSH2 0xE5F PUSH2 0x1560 JUMP JUMPDEST JUMPDEST DUP2 CALLDATALOAD PUSH2 0xE70 DUP5 DUP3 PUSH1 0x20 DUP7 ADD PUSH2 0xE09 JUMP JUMPDEST SWAP2 POP POP SWAP3 SWAP2 POP POP JUMP JUMPDEST PUSH1 0x0 DUP2 CALLDATALOAD SWAP1 POP PUSH2 0xE88 DUP2 PUSH2 0x164F JUMP JUMPDEST SWAP3 SWAP2 POP POP JUMP JUMPDEST PUSH1 0x0 DUP1 PUSH1 0x40 DUP4 DUP6 SUB SLT ISZERO PUSH2 0xEA5 JUMPI PUSH2 0xEA4 PUSH2 0x156F JUMP JUMPDEST JUMPDEST PUSH1 0x0 DUP4 ADD CALLDATALOAD PUSH8 0xFFFFFFFFFFFFFFFF DUP2 GT ISZERO PUSH2 0xEC3 JUMPI PUSH2 0xEC2 PUSH2 0x156A JUMP JUMPDEST JUMPDEST PUSH2 0xECF DUP6 DUP3 DUP7 ADD PUSH2 0xE4B JUMP JUMPDEST SWAP3 POP POP PUSH1 0x20 DUP4 ADD CALLDATALOAD PUSH8 0xFFFFFFFFFFFFFFFF DUP2 GT ISZERO PUSH2 0xEF0 JUMPI PUSH2 0xEEF PUSH2 0x156A JUMP JUMPDEST JUMPDEST PUSH2 0xEFC DUP6 DUP3 DUP7 ADD PUSH2 0xE4B JUMP JUMPDEST SWAP2 POP POP SWAP3 POP SWAP3 SWAP1 POP JUMP JUMPDEST PUSH1 0x0 PUSH1 0x20 DUP3 DUP5 SUB SLT ISZERO PUSH2 0xF1C JUMPI PUSH2 0xF1B PUSH2 0x156F JUMP JUMPDEST JUMPDEST PUSH1 0x0 PUSH2 0xF2A DUP5 DUP3 DUP6 ADD PUSH2 0xE79 JUMP JUMPDEST SWAP2 POP POP SWAP3 SWAP2 POP POP JUMP JUMPDEST PUSH1 0x0 DUP1 PUSH1 0x40 DUP4 DUP6 SUB SLT ISZERO PUSH2 0xF4A JUMPI PUSH2 0xF49 PUSH2 0x156F JUMP JUMPDEST JUMPDEST PUSH1 0x0 PUSH2 0xF58 DUP6 DUP3 DUP7 ADD PUSH2 0xE79 JUMP JUMPDEST SWAP3 POP POP PUSH1 0x20 PUSH2 0xF69 DUP6 DUP3 DUP7 ADD PUSH2 0xE79 JUMP JUMPDEST SWAP2 POP POP SWAP3 POP SWAP3 SWAP1 POP JUMP JUMPDEST PUSH2 0xF7C DUP2 PUSH2 0x13A9 JUMP JUMPDEST DUP3 MSTORE POP POP JUMP JUMPDEST PUSH2 0xF8B DUP2 PUSH2 0x1397 JUMP JUMPDEST DUP3 MSTORE POP POP JUMP JUMPDEST PUSH2 0xF9A DUP2 PUSH2 0x1397 JUMP JUMPDEST DUP3 MSTORE POP POP JUMP JUMPDEST PUSH1 0x0 PUSH2 0xFAB DUP3 PUSH2 0x1310 JUMP JUMPDEST PUSH2 0xFB5 DUP2 DUP6 PUSH2 0x131B JUMP JUMPDEST SWAP4 POP PUSH2 0xFC5 DUP2 DUP6 PUSH1 0x20 DUP7 ADD PUSH2 0x13F4 JUMP JUMPDEST PUSH2 0xFCE DUP2 PUSH2 0x1574 JUMP JUMPDEST DUP5 ADD SWAP2 POP POP SWAP3 SWAP2 POP POP JUMP JUMPDEST PUSH1 0x0 PUSH2 0xFE4 DUP3 PUSH2 0x1310 JUMP JUMPDEST PUSH2 0xFEE DUP2 DUP6 PUSH2 0x132C JUMP JUMPDEST SWAP4 POP PUSH2 0xFFE DUP2 DUP6 PUSH1 0x20 DUP7 ADD PUSH2 0x13F4 JUMP JUMPDEST PUSH2 0x1007 DUP2 PUSH2 0x1574 JUMP JUMPDEST DUP5 ADD SWAP2 POP POP SWAP3 SWAP2 POP POP JUMP JUMPDEST PUSH1 0x0 PUSH2 0x101F PUSH1 0x10 DUP4 PUSH2 0x132C JUMP JUMPDEST SWAP2 POP PUSH2 0x102A DUP3 PUSH2 0x1585 JUMP JUMPDEST PUSH1 0x20 DUP3 ADD SWAP1 POP SWAP2 SWAP1 POP JUMP JUMPDEST PUSH1 0x0 PUSH2 0x1042 PUSH1 0x20 DUP4 PUSH2 0x132C JUMP JUMPDEST SWAP2 POP PUSH2 0x104D DUP3 PUSH2 0x15AE JUMP JUMPDEST PUSH1 0x20 DUP3 ADD SWAP1 POP SWAP2 SWAP1 POP JUMP JUMPDEST PUSH1 0x0 PUSH2 0x1065 PUSH1 0x8 DUP4 PUSH2 0x132C JUMP JUMPDEST SWAP2 POP PUSH2 0x1070 DUP3 PUSH2 0x15D7 JUMP JUMPDEST PUSH1 0x20 DUP3 ADD SWAP1 POP SWAP2 SWAP1 POP JUMP JUMPDEST PUSH1 0x0 PUSH2 0x1088 PUSH1 0x23 DUP4 PUSH2 0x132C JUMP JUMPDEST SWAP2 POP PUSH2 0x1093 DUP3 PUSH2 0x1600 JUMP JUMPDEST PUSH1 0x40 DUP3 ADD SWAP1 POP SWAP2 SWAP1 POP JUMP JUMPDEST PUSH1 0x0 PUSH1 0x80 DUP4 ADD PUSH1 0x0 DUP4 ADD MLOAD PUSH2 0x10B6 PUSH1 0x0 DUP7 ADD DUP3 PUSH2 0x1108 JUMP JUMPDEST POP PUSH1 0x20 DUP4 ADD MLOAD DUP5 DUP3 SUB PUSH1 0x20 DUP7 ADD MSTORE PUSH2 0x10CE DUP3 DUP3 PUSH2 0xFA0 JUMP JUMPDEST SWAP2 POP POP PUSH1 0x40 DUP4 ADD MLOAD DUP5 DUP3 SUB PUSH1 0x40 DUP7 ADD MSTORE PUSH2 0x10E8 DUP3 DUP3 PUSH2 0xFA0 JUMP JUMPDEST SWAP2 POP POP PUSH1 0x60 DUP4 ADD MLOAD PUSH2 0x10FD PUSH1 0x60 DUP7 ADD DUP3 PUSH2 0xF82 JUMP JUMPDEST POP DUP1 SWAP2 POP POP SWAP3 SWAP2 POP POP JUMP JUMPDEST PUSH2 0x1111 DUP2 PUSH2 0x13DB JUMP JUMPDEST DUP3 MSTORE POP POP JUMP JUMPDEST PUSH2 0x1120 DUP2 PUSH2 0x13DB JUMP JUMPDEST DUP3 MSTORE POP POP JUMP JUMPDEST PUSH1 0x0 PUSH1 0x20 DUP3 ADD SWAP1 POP DUP2 DUP2 SUB PUSH1 0x0 DUP4 ADD MSTORE PUSH2 0x113F DUP2 PUSH2 0x1012 JUMP JUMPDEST SWAP1 POP SWAP2 SWAP1 POP JUMP JUMPDEST PUSH1 0x0 PUSH1 0x20 DUP3 ADD SWAP1 POP DUP2 DUP2 SUB PUSH1 0x0 DUP4 ADD MSTORE PUSH2 0x115F DUP2 PUSH2 0x1035 JUMP JUMPDEST SWAP1 POP SWAP2 SWAP1 POP JUMP JUMPDEST PUSH1 0x0 PUSH1 0x20 DUP3 ADD SWAP1 POP DUP2 DUP2 SUB PUSH1 0x0 DUP4 ADD MSTORE PUSH2 0x117F DUP2 PUSH2 0x1058 JUMP JUMPDEST SWAP1 POP SWAP2 SWAP1 POP JUMP JUMPDEST PUSH1 0x0 PUSH1 0x20 DUP3 ADD SWAP1 POP DUP2 DUP2 SUB PUSH1 0x0 DUP4 ADD MSTORE PUSH2 0x119F DUP2 PUSH2 0x107B JUMP JUMPDEST SWAP1 POP SWAP2 SWAP1 POP JUMP JUMPDEST PUSH1 0x0 PUSH1 0x80 DUP3 ADD SWAP1 POP PUSH2 0x11BB PUSH1 0x0 DUP4 ADD DUP8 PUSH2 0x1117 JUMP JUMPDEST DUP2 DUP2 SUB PUSH1 0x20 DUP4 ADD MSTORE PUSH2 0x11CD DUP2 DUP7 PUSH2 0xFD9 JUMP JUMPDEST SWAP1 POP DUP2 DUP2 SUB PUSH1 0x40 DUP4 ADD MSTORE PUSH2 0x11E1 DUP2 DUP6 PUSH2 0xFD9 JUMP JUMPDEST SWAP1 POP PUSH2 0x11F0 PUSH1 0x60 DUP4 ADD DUP5 PUSH2 0xF91 JUMP JUMPDEST SWAP6 SWAP5 POP POP POP POP POP JUMP JUMPDEST PUSH1 0x0 PUSH1 0x80 DUP3 ADD SWAP1 POP PUSH2 0x120E PUSH1 0x0 DUP4 ADD DUP8 PUSH2 0x1117 JUMP JUMPDEST DUP2 DUP2 SUB PUSH1 0x20 DUP4 ADD MSTORE PUSH2 0x1220 DUP2 DUP7 PUSH2 0x109E JUMP JUMPDEST SWAP1 POP PUSH2 0x122F PUSH1 0x40 DUP4 ADD DUP6 PUSH2 0x1117 JUMP JUMPDEST PUSH2 0x123C PUSH1 0x60 DUP4 ADD DUP5 PUSH2 0xF91 JUMP JUMPDEST SWAP6 SWAP5 POP POP POP POP POP JUMP JUMPDEST PUSH1 0x0 PUSH1 0x80 DUP3 ADD SWAP1 POP PUSH2 0x125A PUSH1 0x0 DUP4 ADD DUP8 PUSH2 0x1117 JUMP JUMPDEST DUP2 DUP2 SUB PUSH1 0x20 DUP4 ADD MSTORE PUSH2 0x126C DUP2 DUP7 PUSH2 0x109E JUMP JUMPDEST SWAP1 POP PUSH2 0x127B PUSH1 0x40 DUP4 ADD DUP6 PUSH2 0x1117 JUMP JUMPDEST PUSH2 0x1288 PUSH1 0x60 DUP4 ADD DUP5 PUSH2 0xF73 JUMP JUMPDEST SWAP6 SWAP5 POP POP POP POP POP JUMP JUMPDEST PUSH1 0x0 PUSH1 0x40 DUP3 ADD SWAP1 POP PUSH2 0x12A6 PUSH1 0x0 DUP4 ADD DUP6 PUSH2 0x1117 JUMP JUMPDEST PUSH2 0x12B3 PUSH1 0x20 DUP4 ADD DUP5 PUSH2 0x1117 JUMP JUMPDEST SWAP4 SWAP3 POP POP POP JUMP JUMPDEST PUSH1 0x0 PUSH2 0x12C4 PUSH2 0x12D5 JUMP JUMPDEST SWAP1 POP PUSH2 0x12D0 DUP3 DUP3 PUSH2 0x1459 JUMP JUMPDEST SWAP2 SWAP1 POP JUMP JUMPDEST PUSH1 0x0 PUSH1 0x40 MLOAD SWAP1 POP SWAP1 JUMP JUMPDEST PUSH1 0x0 PUSH8 0xFFFFFFFFFFFFFFFF DUP3 GT ISZERO PUSH2 0x12FA JUMPI PUSH2 0x12F9 PUSH2 0x1531 JUMP JUMPDEST JUMPDEST PUSH2 0x1303 DUP3 PUSH2 0x1574 JUMP JUMPDEST SWAP1 POP PUSH1 0x20 DUP2 ADD SWAP1 POP SWAP2 SWAP1 POP JUMP JUMPDEST PUSH1 0x0 DUP2 MLOAD SWAP1 POP SWAP2 SWAP1 POP JUMP JUMPDEST PUSH1 0x0 DUP3 DUP3 MSTORE PUSH1 0x20 DUP3 ADD SWAP1 POP SWAP3 SWAP2 POP POP JUMP JUMPDEST PUSH1 0x0 DUP3 DUP3 MSTORE PUSH1 0x20 DUP3 ADD SWAP1 POP SWAP3 SWAP2 POP POP JUMP JUMPDEST PUSH1 0x0 PUSH2 0x1348 DUP3 PUSH2 0x13DB JUMP JUMPDEST SWAP2 POP PUSH2 0x1353 DUP4 PUSH2 0x13DB JUMP JUMPDEST SWAP3 POP DUP2 PUSH32 0xFFFFFFFFFFFFFFFFFFFFFFFFFFFFFFFFFFFFFFFFFFFFFFFFFFFFFFFFFFFFFFFF DIV DUP4 GT DUP3 ISZERO ISZERO AND ISZERO PUSH2 0x138C JUMPI PUSH2 0x138B PUSH2 0x14D3 JUMP JUMPDEST JUMPDEST DUP3 DUP3 MUL SWAP1 POP SWAP3 SWAP2 POP POP JUMP JUMPDEST PUSH1 0x0 PUSH2 0x13A2 DUP3 PUSH2 0x13BB JUMP JUMPDEST SWAP1 POP SWAP2 SWAP1 POP JUMP JUMPDEST PUSH1 0x0 PUSH2 0x13B4 DUP3 PUSH2 0x13BB JUMP JUMPDEST SWAP1 POP SWAP2 SWAP1 POP JUMP JUMPDEST PUSH1 0x0 PUSH20 0xFFFFFFFFFFFFFFFFFFFFFFFFFFFFFFFFFFFFFFFF DUP3 AND SWAP1 POP SWAP2 SWAP1 POP JUMP JUMPDEST PUSH1 0x0 DUP2 SWAP1 POP SWAP2 SWAP1 POP JUMP JUMPDEST DUP3 DUP2 DUP4 CALLDATACOPY PUSH1 0x0 DUP4 DUP4 ADD MSTORE POP POP POP JUMP JUMPDEST PUSH1 0x0 JUMPDEST DUP4 DUP2 LT ISZERO PUSH2 0x1412 JUMPI DUP1 DUP3 ADD MLOAD DUP2 DUP5 ADD MSTORE PUSH1 0x20 DUP2 ADD SWAP1 POP PUSH2 0x13F7 JUMP JUMPDEST DUP4 DUP2 GT ISZERO PUSH2 0x1421 JUMPI PUSH1 0x0 DUP5 DUP5 ADD MSTORE JUMPDEST POP POP POP POP JUMP JUMPDEST PUSH1 0x0 PUSH1 0x2 DUP3 DIV SWAP1 POP PUSH1 0x1 DUP3 AND DUP1 PUSH2 0x143F JUMPI PUSH1 0x7F DUP3 AND SWAP2 POP JUMPDEST PUSH1 0x20 DUP3 LT DUP2 EQ ISZERO PUSH2 0x1453 JUMPI PUSH2 0x1452 PUSH2 0x1502 JUMP JUMPDEST JUMPDEST POP SWAP2 SWAP1 POP JUMP JUMPDEST PUSH2 0x1462 DUP3 PUSH2 0x1574 JUMP JUMPDEST DUP2 ADD DUP2 DUP2 LT PUSH8 0xFFFFFFFFFFFFFFFF DUP3 GT OR ISZERO PUSH2 0x1481 JUMPI PUSH2 0x1480 PUSH2 0x1531 JUMP JUMPDEST JUMPDEST DUP1 PUSH1 0x40 MSTORE POP POP POP JUMP JUMPDEST PUSH1 0x0 PUSH2 0x1495 DUP3 PUSH2 0x13DB JUMP JUMPDEST SWAP2 POP PUSH32 0xFFFFFFFFFFFFFFFFFFFFFFFFFFFFFFFFFFFFFFFFFFFFFFFFFFFFFFFFFFFFFFFF DUP3 EQ ISZERO PUSH2 0x14C8 JUMPI PUSH2 0x14C7 PUSH2 0x14D3 JUMP JUMPDEST JUMPDEST PUSH1 0x1 DUP3 ADD SWAP1 POP SWAP2 SWAP1 POP JUMP JUMPDEST PUSH32 0x4E487B7100000000000000000000000000000000000000000000000000000000 PUSH1 0x0 MSTORE PUSH1 0x11 PUSH1 0x4 MSTORE PUSH1 0x24 PUSH1 0x0 REVERT JUMPDEST PUSH32 0x4E487B7100000000000000000000000000000000000000000000000000000000 PUSH1 0x0 MSTORE PUSH1 0x22 PUSH1 0x4 MSTORE PUSH1 0x24 PUSH1 0x0 REVERT JUMPDEST PUSH32 0x4E487B7100000000000000000000000000000000000000000000000000000000 PUSH1 0x0 MSTORE PUSH1 0x41 PUSH1 0x4 MSTORE PUSH1 0x24 PUSH1 0x0 REVERT JUMPDEST PUSH1 0x0 DUP1 REVERT JUMPDEST PUSH1 0x0 DUP1 REVERT JUMPDEST PUSH1 0x0 DUP1 REVERT JUMPDEST PUSH1 0x0 DUP1 REVERT JUMPDEST PUSH1 0x0 PUSH1 0x1F NOT PUSH1 0x1F DUP4 ADD AND SWAP1 POP SWAP2 SWAP1 POP JUMP JUMPDEST PUSH32 0x4574686572206E6F7420656E6F75676800000000000000000000000000000000 PUSH1 0x0 DUP3 ADD MSTORE POP JUMP JUMPDEST PUSH32 0x546865204472697665722063616E6E6F74207374617274207468652072696465 PUSH1 0x0 DUP3 ADD MSTORE POP JUMP JUMPDEST PUSH32 0x4E6F207269646573000000000000000000000000000000000000000000000000 PUSH1 0x0 DUP3 ADD MSTORE POP JUMP JUMPDEST PUSH32 0x412052696465722063616E6E6F74206F666665722068696D73656C6620612072 PUSH1 0x0 DUP3 ADD MSTORE PUSH32 0x6964650000000000000000000000000000000000000000000000000000000000 PUSH1 0x20 DUP3 ADD MSTORE POP JUMP JUMPDEST PUSH2 0x1658 DUP2 PUSH2 0x13DB JUMP JUMPDEST DUP2 EQ PUSH2 0x1663 JUMPI PUSH1 0x0 DUP1 REVERT JUMPDEST POP JUMP INVALID LOG2 PUSH5 0x6970667358 0x22 SLT KECCAK256 JUMPDEST GASLIMIT 0xEB PUSH20 0xF82F536CCCE9AA77D4180CF3A76619F38CFD84EA 0x1F SAR 0xE7 0xD6 0xA9 MSIZE 0xBA EXTCODEHASH PUSH5 0x736F6C6343 STOP ADDMOD SMOD STOP CALLER "
				},
				"gasEstimates": {
					"creation": {
						"codeDepositCost": "1157600",
						"executionCost": "infinite",
						"totalCost": "infinite"
					},
					"external": {
						"createRide(uint256,uint256)": "infinite",
						"requestRide(string,string)": "infinite",
						"requests(uint256)": "infinite",
						"rides(uint256)": "infinite",
						"startRide(uint256)": "infinite"
					}
				},
				"methodIdentifiers": {
					"createRide(uint256,uint256)": "85a79173",
					"requestRide(string,string)": "ac4bfb03",
					"requests(uint256)": "81d12c58",
					"rides(uint256)": "5205f112",
					"startRide(uint256)": "e9c14b1e"
				}
			},
			"storageLayout": {
				"storage": [
					{
						"astId": 30,
						"contract": "contracts/Taxi.sol:Taxi",
						"label": "name",
						"offset": 0,
						"slot": "0",
						"type": "t_string_storage"
					},
					{
						"astId": 33,
						"contract": "contracts/Taxi.sol:Taxi",
						"label": "rideCount",
						"offset": 0,
						"slot": "1",
						"type": "t_uint256"
					},
					{
						"astId": 36,
						"contract": "contracts/Taxi.sol:Taxi",
						"label": "requestCount",
						"offset": 0,
						"slot": "2",
						"type": "t_uint256"
					},
					{
						"astId": 41,
						"contract": "contracts/Taxi.sol:Taxi",
						"label": "requests",
						"offset": 0,
						"slot": "3",
						"type": "t_mapping(t_uint256,t_struct(Request)18_storage)"
					},
					{
						"astId": 46,
						"contract": "contracts/Taxi.sol:Taxi",
						"label": "rides",
						"offset": 0,
						"slot": "4",
						"type": "t_mapping(t_uint256,t_struct(Ride)28_storage)"
					}
				],
				"types": {
					"t_address": {
						"encoding": "inplace",
						"label": "address",
						"numberOfBytes": "20"
					},
					"t_address_payable": {
						"encoding": "inplace",
						"label": "address payable",
						"numberOfBytes": "20"
					},
					"t_mapping(t_uint256,t_struct(Request)18_storage)": {
						"encoding": "mapping",
						"key": "t_uint256",
						"label": "mapping(uint256 => struct Taxi.Request)",
						"numberOfBytes": "32",
						"value": "t_struct(Request)18_storage"
					},
					"t_mapping(t_uint256,t_struct(Ride)28_storage)": {
						"encoding": "mapping",
						"key": "t_uint256",
						"label": "mapping(uint256 => struct Taxi.Ride)",
						"numberOfBytes": "32",
						"value": "t_struct(Ride)28_storage"
					},
					"t_string_storage": {
						"encoding": "bytes",
						"label": "string",
						"numberOfBytes": "32"
					},
					"t_struct(Request)18_storage": {
						"encoding": "inplace",
						"label": "struct Taxi.Request",
						"members": [
							{
								"astId": 11,
								"contract": "contracts/Taxi.sol:Taxi",
								"label": "id",
								"offset": 0,
								"slot": "0",
								"type": "t_uint256"
							},
							{
								"astId": 13,
								"contract": "contracts/Taxi.sol:Taxi",
								"label": "fromLocation",
								"offset": 0,
								"slot": "1",
								"type": "t_string_storage"
							},
							{
								"astId": 15,
								"contract": "contracts/Taxi.sol:Taxi",
								"label": "toLocation",
								"offset": 0,
								"slot": "2",
								"type": "t_string_storage"
							},
							{
								"astId": 17,
								"contract": "contracts/Taxi.sol:Taxi",
								"label": "rider",
								"offset": 0,
								"slot": "3",
								"type": "t_address"
							}
						],
						"numberOfBytes": "128"
					},
					"t_struct(Ride)28_storage": {
						"encoding": "inplace",
						"label": "struct Taxi.Ride",
						"members": [
							{
								"astId": 20,
								"contract": "contracts/Taxi.sol:Taxi",
								"label": "id",
								"offset": 0,
								"slot": "0",
								"type": "t_uint256"
							},
							{
								"astId": 23,
								"contract": "contracts/Taxi.sol:Taxi",
								"label": "req",
								"offset": 0,
								"slot": "1",
								"type": "t_struct(Request)18_storage"
							},
							{
								"astId": 25,
								"contract": "contracts/Taxi.sol:Taxi",
								"label": "price",
								"offset": 0,
								"slot": "5",
								"type": "t_uint256"
							},
							{
								"astId": 27,
								"contract": "contracts/Taxi.sol:Taxi",
								"label": "driver",
								"offset": 0,
								"slot": "6",
								"type": "t_address_payable"
							}
						],
						"numberOfBytes": "224"
					},
					"t_uint256": {
						"encoding": "inplace",
						"label": "uint256",
						"numberOfBytes": "32"
					}
				}
			},
			"userdoc": {
				"kind": "user",
				"methods": {},
				"version": 1
			}
		}
	}
}